:100000000C946B040C94B2040C94B2040C94B204DF
:100010000C94B2040C94B2040C94B2040C94B20488
:100020000C94B2040C94B2040C94401F0C947C1EEB
:100030000C94D32A0C94B2040C94B2040C94B20421
:100040000C94B2040C94B2040C94B2040C94B20458
:100050000C94B2040C94922A0C94B2040C94B20442
:100060000C94B2040C94B2040C94B2040C94B20438
:100070000C94B2040C94B2040C94B2040C94B20428
:100080000C94B2040C94B2040C94B2040C94B20418
:100090000C94B2040C94B2040C94B2040C94B20408
:1000A0000C94B2040C94B2040C94B2046E0A6E0A5E
:1000B000A60AA60A390B550B2C0D2C0D620B3F0C12
:1000C0004E0C4E0C6A1284128B1208140814C312C0
:1000D000D412E7122E1333135B136C1382138513A0
:1000E000841CAB1C5E1EAB1C5E1EF71C1A1D5E1E24
:1000F0001B1E2B1E21262126332633262A26332695
:1001000033263326212621262F26332633262F2653
:1001100001000100080200000200020004020000C9
:10012000030001000902000004000200EE01961421
:10013000050001000A02000006000200F0010000B4
:100140000700020006020000080001000B02000088
:1001500009000200F20171140A000200F401711496
:100160000B000200F60171140C000200F80171147A
:100170000D000200FA0171140E000200FC0171145E
:100180000F000200FE017114100002000002711441
:100190001100020002027114120002000C020000A1
:1001A000130002000E020000FD377A585A000004C6
:1001B000E6D6B4460200210116000000742FE5A324
:1001C000E0061701D15D003D8889C65436C3174F3C
:1001D000E4DB9F9A0A2592807C3A16804A4D21538F
:1001E0006096363399248D3BBFE9C16DCD10B25571
:1001F000A73ACCADF358A6FAFD4634604E79484D87
:10020000343F7D7A549078B9CA1E2220E6646ECFBE
:10021000A67EE7AC5243563043C104072554B0A232
:10022000592CAE4FB25C672156CA79940E50CE0657
:100230002913F75913D9A932B0C7A615335373F14F
:1002400015CEE50E58EB0FACC91A9202DE54780AAF
:1002500028A51C0FE972BD534A1DF4092D287E18EC
:100260005894801302E007698B31A20D71FD56F698
:10027000989B8CA5C77CD33E76BAED485494B03D8C
:1002800031D5947FEE819DBF885FC2884B8CC93386
:10029000E4E5C80D510898C6C19A67B89B09DAEC25
:1002A000653794A31C877C29745B8B2EC3F8B085BB
:1002B000D1BB8F8CF4F149B8D53383874DDD0AA6C5
:1002C000321D8D8D9E2E720C63A0FC359CA4D3A58F
:1002D0009D9AE6C626EC56DE966B59657FEEEC27B6
:1002E000FC43633C7CDAEFC2E20BF62CB886D9FB08
:1002F0008C92C10236CFDDD17130C97BDAB1B80939
:10030000B718BF6767765CDD524BB0568495CA6DEF
:100310008C2CDA519C5C83AFDB20902FAF913E8216
:1003200075E1D5D52E3D9B8BC520A7AC14DACFF552
:100330000E3FB768FA2F9E510B17DF1126ADCC3058
:10034000F0D68FFEA8330006A21823B71AA77F6E37
:10035000FF2923035397FAA1F1A3174D569AD19180
:100360005D27F9C16BDF16F210027F828863258D4D
:10037000C9AB16596366FF4C0AE48F8199982FC266
:10038000915A9871E9AED540F469A792C7A15C353E
:10039000E7A3C308ED30AF0000000000876BEAA4BC
:1003A000C3B957000001ED03980C00007E96C15FB1
:1003B000B1C467FB020000000004595A1E0000008F
:1003C000000000000000000000000000000000002D
:1003D0000000000000000000000029001F002000B5
:1003E00021002200230024002500260027002D00E4
:1003F0002E002A0000004D002B0014001A000800F7
:10040000150017001C0018000C00120013002F002C
:10041000300031004B0039000400160007000900CD
:100420000A000B000D000E000F0033003400000026
:1004300028004E00E1001D001B0006001900050009
:10044000050011001000360037003800E5005200AA
:100450000000E00000000000E2002C0000002C0082
:1004600000000000015100000000500051004F004A
:100470003A00000000000000000000000000000042
:100480000000000000000000000000000000350037
:100490003B003C003D003E003F0040004100420068
:1004A0004300440045004C0000004A0001000100E8
:1004B0000100010001000100010001000100010034
:1004C0000100010001000100010001000100010024
:1004D0000100010001000100010001000100010014
:1004E0000100000001000100010001000100010005
:1004F00001000100010001000100010001000100F4
:1005000001000100000001000000000001000100E6
:1005100000000100000000000100000000000100D8
:1005200001000100010000000000000000000000C8
:1005300000000000000000000000000000000000BB
:1005400000000100010001000100010001000100A4
:100550000100010001000100010001000000010094
:100560000100010001000100010001000100010083
:100570000100010001000100010001000100010073
:100580000100010001000100010001000100010063
:100590000100010001000000010001000100010054
:1005A0000100010001000100010001000100010043
:1005B0000100010001000100000001000000000036
:1005C0000100010000000100000000000100000027
:1005D0000000010001000100010000000000000017
:1005E000000000000000000000000000000000000B
:1005F00000000000000001000100010001000100F6
:1006000001000100010001000100010001000100E2
:1006100000000100010001000100010001000100D3
:1006200001000100010001000100010001000100C2
:1006300001000100010001000100010001000100B2
:1006400001000100010001000100000001000100A3
:100650000100010001000100010001000100010092
:100660000100010001000100010001000000010083
:100670000000000001000100000001000000000077
:100680000100000000000100010001000501090255
:10069000A10185020901A10005091901290515001B
:1006A00025019505750181029501750381010501FB
:1006B000093009311581257F9502750881060938B1
:1006C0001581257F950175088106050C0A380215EC
:1006D00081257F950175088106C0C005010980A1AB
:1006E00001850319012AB700150126B70095017588
:1006F000108100C0050C0901A101850419012AA07F
:1007000002150126A002950175108100C00660FF48
:100710000961A1010962150026FF00952075088175
:10072000020963150026FF00952075089102C00597
:10073000010906A101050719E029E7150025019522
:1007400008750181029501750881010507190029C5
:10075000FF150026FF0095067508810005081901A0
:100760002905950575019102950175039101C0094F
:10077000025B00030100A0FA09040000010301016B
:100780000009211101000122400007058103080032
:100790000A090401000203000000092111010001FF
:1007A0002222000705820320000107050303200021
:1007B00001090402000103000000092111010001E8
:1007C0002281000705840320000A120110010000A5
:1007D00000085C5236290100010203011C03760067
:1007E000690061006C003A00660036003400630066
:1007F000320062003300630000000E03410072000B
:100800006300680065007200000016034100780074
:100810006F006C00730074007500640069006F0065
:1008200000000403090400000000000000000000B4
:1008300000000000000000000000000000000000B8
:10084000000000000000000000007E0F00D4FFFF49
:10085000FFC70000007800000000000000002A2B05
:100860002800000000000000000000000000000060
:100870000029000000002C1E3420212224342627C9
:10088000252E362D3738271E1F20212223242526EA
:100890003333362E37381F0405060708090A0B0CB8
:1008A0000D0E0F101112131415161718191A1B1C00
:1008B0001D2F3130232D350405060708090A0B0CBE
:1008C0000D0E0F101112131415161718191A1B1CE0
:1008D0001D2F3130354C11241FBECFEFDAE0DEBFC3
:1008E000CDBF04B603FE27C0809126039091270355
:1008F000A0912803B09129038730904BA740B04BBB
:10090000D1F410922603109227031092280310921C
:10091000290314BE84B7877F84BF0FB6F894A895C7
:1009200080916000886180936000109260000FBE2B
:10093000E0E0F8E3099511E0A0E0B1E0E6EEFDE5C6
:1009400002C005900D92A637B107D9F723E0A6E7BC
:10095000B1E001C01D92A632B207E1F70E94A10DDD
:100960000C94F12E0C9400002F923F924F925F92C4
:100970006F927F928F929F92AF92BF92CF92DF92AF
:10098000EF92FF920F931F93CF93DF93CDB7DEB714
:1009900064970FB6F894DEBF0FBECDBF7C01DC01BB
:1009A00013964D915C91149711966C9111978C91BF
:1009B0000E947E2D81110C94880D21E0F701408169
:1009C00051816281738184810E949C258C01D701B1
:1009D00012968C91811105C0F7014281411140C0EE
:1009E000C0C0809100018F3FB9F3BAE7CB2EB1E0D0
:1009F000DB2EA12CB12C9924939480910001082E18
:100A0000000C990B8A159B053CF3D60116968C9128
:100A100016978823F1F019968D919C911A970817D3
:100A2000190739F480917801909179010817190715
:100A300081F0F6019786148703878189811103C0AD
:100A4000C6010E944315C60106960E9464151092C5
:100A50001E03FFEFAF1ABF0A26E1C20ED11CCDCF95
:100A6000C80182519F45409708F094C08FEF93E0F2
:100A70000E94622E81117FC0AEEEDA2ED00E09E602
:100A800013E0DD2071F0011544E0140709F473C090
:100A9000C8010E94622E811101C0DA940F5F1F4FBE
:100AA000F0CF19821A821B821C82AA24AA946801A0
:100AB0005FEFC51AD50AC8010E94622E89831A8287
:100AC000882309F458C0813009F046C0480182E00B
:100AD000880E911CC6010E94622E8A83882309F425
:100AE0004AC09FEF980F933060F4680193E0C90EFD
:100AF000D11CC4010E94622E8B8381112DC08601FE
:100B0000D6CF843011F06401FACFC4010E94622E66
:100B1000B82E6801A4E0CA0ED11CC80103960E9439
:100B2000622EBB2041F1882331F1282F30E0215083
:100B30003109A29EA001A39E500D11248B2D90E09F
:100B40000197840F951F0197D0F2EFE9FFE03197ED
:100B5000F1F700C00000F7CFCE0101960E94E92412
:100B6000CECF0031FFE51F0709F036C481E00E94B7
:100B7000DB2C0E94801B80911B03877009F4C8C77F
:100B8000D70112968C91882309F4C2C782E00E9493
:100B9000002DBEC70031BFE51B0711F481E005C081
:100BA0000131EFE51E0721F482E00E941D2DE1CF07
:100BB000C80197558F3F910511F008F057C020915B
:100BC0000001022E000C330B2817390714F4809310
:100BD000000126E1289F5001299FB00C1124C50176
:100BE00086589E4F6C01DC0150964C935097F7014C
:100BF000928116968C911697992369F11A961C93F7
:100C00000E9319978F5F16968C930E94C72AD60170
:100C10001E969C938E931D978091210317968C931B
:100C2000179790911E0380911D03892B18968C9322
:100C30001897ED91FC911197C50180589E4F309700
:100C400029F054966D917C915597099510937901EF
:100C5000009378010BC08823B1F0F60181898823C5
:100C600091F0C50180589E4F0E946415073FFCE536
:100C70001F0749F4D70112968C91882321F181E056
:100C8000809301013DC1083FBCE51B0771F4F701EA
:100C900082818823C1F0109201011092E20110922A
:100CA000E10181E00E94BD152BC1093FFCE51F0752
:100CB00051F4D70112968C91882329F0809101017B
:100CC0008823E9F2E8CF40900101442009F418C1DB
:100CD0001092E5011092E401612CE5E05E2E88247B
:100CE0008394912C33243394A090E401B090E501D7
:100CF000F4E0AF16B10408F0CFC05A9CF0015B9C41
:100D0000F00D1124E05FFD4FBE01655F7F4F8081D4
:100D10000E94E916892B11F0712CB3C0FE013B969D
:100D200080E090E022242A94282F4191519141158E
:100D3000510551F00417150709F4282E0196843047
:100D4000910591F724E002C0823030F3BFEF2B16FB
:100D500019F3F7017280772009F448C05A9CC0014A
:100D60005B9C900D1124AC01405F5D4F6A01C40192
:100D700001C0880F2A94EAF7DA0114969C9114971F
:100D8000892B14968C93F40102C0EE0FFF1F2A9555
:100D9000E2F79F012150310990E08F77281739073A
:100DA00009F06EC080E00E94BD15D60114968C91AA
:100DB0001497806814968C93149712968D919C9139
:100DC0001397009719F00E94DB250DC0BE016F5FDD
:100DD0007F4F8091E4010E94E916892B21F48985D7
:100DE0009A850E94941A3092E3014BC0F40102C02C
:100DF000EE0FFF1F2A95E2F79F01215031095A9CFF
:100E0000F0015B9CF00D1124E05FFD4F848190E0C8
:100E10008F7728173907A1F482819381009719F001
:100E20000E94C5250DC0BE016F5F7F4F8091E40118
:100E30000E94E916892B21F489859A850E940B1A54
:100E40005A9CF0015B9CF00D1124E05FFD4F9481F2
:100E5000292F30E0022C02C0359527950A94E2F73D
:100E600020FF5ACF940101C0220F2A94EAF7822F63
:100E700080958923848387FF4FCF803809F41482BB
:100E8000742C67288091E4019091E501019690937C
:100E9000E5018093E40128CF8091E301882359F094
:100EA0000E94C72A9093E2018093E1011092E3012E
:100EB000611061CE25C0611006C081E00E94BD15A1
:100EC0000E94AB151DC0D70112968C91882309F49E
:100ED00052CE0E94C72A9093E2018093E101E091F3
:100EE000E001E73008F047CE81E08E0F8093E0010B
:100EF000F0E0EE0FFF1FEE52FE4F118300833BCE5A
:100F00008091090280FF65C00E94C72A6C01F70129
:100F10008281882379F18091020182FF06C040E03E
:100F2000B60180E090E00E94E21482E00E949D2BD6
:100F30000B31FCE51F0779F00C312CE5120789F025
:100F40000A314CE51407B1F480910201982F909575
:100F500090FB80F909C080910201816080930201B9
:100F60007FC0809102018E7F8093020182E00E9407
:100F70009D2B76C00832110538F40E311105B8F4F6
:100F80000430110578F425C00933110538F40D3209
:100F9000110590F40B32110579F01BC004361105D0
:100FA00059F017C08091090284FD13C009C08091D7
:100FB000090283FD0EC004C08091090282FD09C0B0
:100FC000F7018281882309F4B5C18091020180FD77
:100FD00075C1033FBCE51B0741F190F4083DFCE5FA
:100FE0001F07E9F0093D2CE5120789F1073D4CE5A3
:100FF0001407B1F506E221EE41EE67ED7CE52CC069
:10100000053F5CE51507E9F0B0F0063F9CE51907E0
:1010100039F507E225EE46EE66EF7CE51DC007E2F6
:1010200025EE45EE68ED7CE517C006E221EE40EEC8
:1010300063EF7CE511C007E225EE44EE64EF7CE54A
:101040000BC006E221EE42EE65EF7CE505C008E24A
:1010500021E045EE69ED7CE5C7010E94DD158BCDF1
:10106000D70112962C91222309F46AC11092EA0149
:101070000230BCE51B0708F463C10631ECE51E072E
:1010800030F0C8018A5F9C45099708F059C10E9459
:10109000162B90932502809324020031FCE51F0754
:1010A00009F4C3C008F041C008304CE5140709F446
:1010B0009AC0F0F404308CE5180709F487C068F48E
:1010C0000230ACE51A0709F477C003301C4509F07B
:1010D000E5C080912402826076C00630ECE51E07F0
:1010E00009F46EC008F07BC08091240288606BC058
:1010F0000C302CE5120709F485C068F40A305CE571
:10110000150709F474C008F079C00E94592680912F
:101110002402806858C00E309CE5190709F476C097
:1011200008F07FC0809124028BC00B3FBCE51B07F9
:1011300009F44FC018F50331FCE51F0709F47DC021
:1011400078F401314CE5140709F473C002311C45F1
:1011500009F0A4C00E945926809124028F7733C0E1
:1011600005318CE5180709F472C008F486C00A3FFF
:101170001C4509F093C0809125023EC00F3FBCE59D
:101180001B0709F45FC058F40D3FFCE51F0709F485
:1011900044C008F43FC08091250282602DC0013018
:1011A0004DE5140709F475C008F45DC002301D4513
:1011B00009F074C060E06EC080912402816003C0B9
:1011C0008091240280618093240268C0809124026F
:1011D00011C0809125028260809325025FC08091BA
:1011E00024028062F0CF809124028064ECCF809151
:1011F000240288608460E7CF8160EECF8091240272
:101200008E7FE1CF809124028D7FDDCF80912402FB
:10121000877FD9CF8091250218C0809125028D7FCC
:10122000DBCF809124028F7ECECF809124028F7DF0
:10123000CACF809124028F7BC6CF80912402877F02
:101240008B7FC1CF809125028D7F8E7FC5CF80910E
:10125000240282FB222720F991E0922790FB82F959
:1012600090FB83F9B0CF80912502982F90959170D3
:101270008E7F892B90FB81F9AFCF0E9459268091F8
:10128000240287FB222720F991E0922790FB87F91F
:101290009ACF61E08EE090E00E94702E609124026F
:1012A0001091250284E090E00E94702E612F82E26E
:1012B00090E00E94702E0E9459265DCC9091090208
:1012C00091FD04C020911D03211183CE95FF21C003
:1012D0002091E8013091E901D601A21BB30B9D01D9
:1012E00096FD02C081FD15C0283C310590F4209187
:1012F000E6013091E7010217130759F481FF05C099
:1013000080911E03826080931E03802F0E949C2682
:1013100032CC1093E7010093E601D092E901C0922C
:10132000E8018091020184608093020182E00E94C2
:10133000002D21CC40E0B601C8010E94E2141BCC74
:101340000631FCE51F0709F04EC080911D03982F60
:101350009A7A3091080230FF04C0482F447409F093
:1013600090E031FF04C0482F417109F090E032FF56
:1013700004C0482F487809F090E033FF02C0827221
:1013800061F42223A1F081E0911101C080E08093FB
:10139000EB01992331F065E305C0222341F010925F
:1013A000EB0169E28CE992E00E94FC2A12C0809174
:1013B000EB01882311F085E301C089E2ECE9F2E05A
:1013C0009281891301C01282319692E0E23AF907C4
:1013D000B9F70E94E62BCFCB01312FE5120709F0B8
:1013E000E7CB82E0C4CB222389F10A35ADE51A07A9
:1013F00041F150F40115ECE51E07A9F00E3D1C4526
:1014000029F50E94272BB7CB0B352DE51207D9F014
:101410000C351D45D9F48091250282FB882780F97F
:1014200091E0892711C00E9459265FEF84E39CE078
:10143000515080409040E1F700C000000E946E2AA9
:101440009ACB81E001C080E00E94AB2BD7011296BD
:101450008C9112970D911C91882349F0C8010E942C
:10146000272CD82E682FC8010E94A42C04C0C801C4
:101470000E94742CD82EB8018D2D0E945A238C0105
:10148000882EF701B280C580C2946FE0C622809199
:101490001B03877099F0BB2089F0812F807F8034F7
:1014A00021F080E2800F883048F082E00E94002D19
:1014B00080911B038770AA24A3948111A12C912EE3
:1014C00092945FE09522892D90E08C30910508F090
:1014D000C3C2FC01EA5AFF4F0C94D42E912F9F7087
:1014E000812F807FD92E19F0D29440EFD422BB20D7
:1014F000B9F0DD2009F48EC280E2800F883010F050
:10150000811006C080911D03D82AD0921D0305C00A
:1015100080911E03D82AD0921E030E94E62B7AC225
:10152000802F0E946426DD2009F496C280E2800F9D
:10153000883010F0811004C08D2D0E94A42B03C0B0
:101540008D2D0E949D2B0E94E62B86C2912F9F70AD
:10155000812F807FD92E803219F0D29430EFD322A0
:10156000882029F0F1E08F1609F44FC05CC0BB2041
:1015700079F1CC2039F144244394C41013C08091F4
:10158000250282FD69C280912103D82AD81609F468
:1015900063C20E94C72A9093200380931F03D092B6
:1015A00021035AC280910A02823060F0C8120AC038
:1015B0000E94922B80911803D81609F452C0D09241
:1015C00018034FC0809121038D290E94FB2544C23E
:1015D000CC2081F080910A0255245394C51010C08C
:1015E000823008F439C280911D038D2109F434C280
:1015F0000E94212C0E94922B8D2D0E940C262CC221
:101600008230C0F3C812F6CF27C2BB2031F025E0EC
:10161000622E6C1408F420C224C094E0792E7C144D
:1016200008F41AC2E9CFBB20F1F0CC20D1F020E0C1
:10163000D7014C9111965C91119712966C9112976B
:1016400013967C91139714968C910E949C258091FF
:101650000B0281FDDFC1F701858180FFDBC18F7047
:1016600085838D2DB2CFCC2039F2F9E38F12E4C1FE
:10167000DEC1812F86958695837019F0813059F0EF
:10168000EBC1BB2019F0C801937002C080E090E06C
:101690000E94C014E1C1BB2019F0C801937002C0C0
:1016A00080E090E00E94AA14D7C1802FBB2029F0CF
:1016B0000E9492210E94801802C00E94AA180E94D3
:1016C0008018CAC1812F837009F06AC0B110C4C1EB
:1016D000902F929596959770990F990F802F8F70F4
:1016E000482E512C612C712C092E04C0440C551C21
:1016F000661C771C0A94D2F704FF12C04FE050E03A
:1017000060E070E004C0440F551F661F771F9A9574
:10171000D2F7DB01CA0180959095A095B09503C0E2
:1017200080E090E0DC01612F669566956370623021
:10173000D9F068F5209122033091230340912403CE
:1017400050912503613059F084299529A629B7299C
:10175000BC01CD0162237323842395231EC0422A3A
:10176000532A642A752A13C084299529A629B729E2
:10177000409022035090230360902403709025032F
:10178000BC01CD01642575258625972506C0BC01C1
:10179000CD0164297529862997290E94542D5CC1A1
:1017A000BB2019F0812F817001C08695882309F430
:1017B00053C1902F929596959770990F990F802FFE
:1017C0008F70482E512C612C712C092E04C0440CB2
:1017D000551C661C771C0A94D2F704FF12C04FE018
:1017E00050E060E070E004C0440F551F661F771F93
:1017F0009A95D2F7DB01CA0180959095A095B09596
:1018000003C080E090E0DC01612F6695669563700F
:101810006230D9F068F520919402309195024091A0
:10182000960250919702613059F084299529A62992
:10183000B729BC01CD01622373238423952391C072
:10184000422A532A642A752A13C084299529A62975
:10185000B729409094025090950260909602709043
:101860009702BC01CD01642575258625972579C091
:10187000BC01CD01642975298629972972C0212FC1
:101880002F70D22EBB2029F0822F0E941D2D802F79
:101890009CCE802F0E940C268D2DDAC0802F42EF27
:1018A000841609F443C0481538F050EF851661F0EE
:1018B00091EF8916A9F1AAC0A3EF8A16E9F1B4EF56
:1018C0008B1609F451C0A2C0BB2029F0E4E0EC154E
:1018D00008F4C2C005C085E0582E5C1408F4BCC0F2
:1018E000212F2F7181E090E0A0E0B0E0AC01BD01BC
:1018F00004C0440F551F661F771F2A95D2F78091A9
:10190000940290919502A0919602B09197022A01BB
:101910003B01482659266A267B26C301B20121C015
:10192000812F8F71BB2009F493C07AC0812F8F71F2
:10193000BB2009F475C08CC0BB2081F0212F2F7112
:1019400081E090E0A0E0B0E0BC01CD0104C0660FF2
:10195000771F881F991F2A95D2F703C060E070E0B7
:10196000CB010E94D12C78C090910A029230B8F13C
:10197000BB20F1F0809118030E94A42B80911B03DF
:101980008770843039F40E94C52B812F8F710E949B
:10199000DB2C61C080910A02C81608F05CC0212FC0
:1019A0002F71D22E822F0E941D2D63E08D2D10C02D
:1019B00020911D0380911803822B80931D03C9166B
:1019C00050F00E94C52B0E94212C64E0812F8F7162
:1019D0000E943E2D40C081E00E94002D3CC0BB20F3
:1019E00059F0412F4F71D42E842F0E941D2D63E09A
:1019F0008D2D0E943E2D30C081E00E94002D51E0CF
:101A00005C1550F582E00E94002D26C0BB2059F0E5
:101A1000CC2021F0802F0E949C261EC0812F8F7128
:101A20000E941D2D19C0CC2089F0893329F48091A2
:101A30000E0290910F0204C080910C0290910D0251
:101A40000E949F14802F0E94642606C0812F8F71F0
:101A50000E94DB2C01C0A12C88EF890D843010F48A
:101A60000E94D614C8010E941326811105C010924D
:101A7000ED011092EC0125C0BB2019F0C110F7CF89
:101A800020C0C110F4CF20E0D7014C9111965C9199
:101A9000119712966C91129713967C911397149646
:101AA0008C910E949C2580910B0283FFE0CF809156
:101AB000EC019091ED010297D1F6802F0E94FB2658
:101AC000D6CFAA20A9F080911B0380FD11C0F70199
:101AD00012828595859585950E941D2DC7010E94CE
:101AE000B40480911B038595859585950E94DB2C18
:101AF00020E0D7014C9111965C91119712966C9150
:101B0000129713967C91139714968C910E949C25A2
:101B100064960FB6F894DEBF0FBECDBFDF91CF91B4
:101B20001F910F91FF90EF90DF90CF90BF90AF90FB
:101B30009F908F907F906F905F904F903F902F90ED
:101B40000895CF93DF93CDB7DEB7E4970FB6F8943F
:101B5000DEBF0FBECDBF84B7877F84BF0FB6F894BA
:101B6000A895809160008861809360001092600069
:101B70000FBE90E080E80FB6F894809361009093D8
:101B800061000FBE85B7806885BF85B7806885BF57
:101B900087EE99E290937701809376010E942A184C
:101BA000109211021092100281E090E090931602C0
:101BB0008093150282E090E090931B0280931A02BA
:101BC00083E090E09093200280931F020E945416BD
:101BD0000E94C01E0E94DF1E8091E20084608093FC
:101BE000E2007894809193028823A1F01091E9009B
:101BF0001F709091EC00892F817090FD80E8182B68
:101C00001092E9008091E80083FD0E949E1B1F70E6
:101C10001093E90082E084BD93E095BD9AEF97BDF3
:101C200080936E0000E211E0F6E2EF2EF1E0FF2E6D
:101C3000F80181918F010E94FA21E016F106C1F7A7
:101C400006E211E0E5E3EE2EE1E0FE2EF8018191DF
:101C50008F010E94FA21E016F106C1F7E6E2F2E0F8
:101C6000A3E5B2E0119211921D921D9222E0E2339F
:101C7000F207C1F780E090E00E946A2E8A3E9E4FF4
:101C800011F00E94272B82E090E00E94622E809348
:101C900042020E94162B90932502809324020E94F8
:101CA00011228FE39CE90197F1F700C000000E9428
:101CB00011228091530280FF17C06FEF83E290E002
:101CC0000E94702E6FEF84E290E00E94702E6FEF02
:101CD00085E290E00E94702E6FEF7FEF80E090E051
:101CE0000E948E2E0E946E2A83E090E00E94622E57
:101CF000682F70E080E090E00E94542D83E290E035
:101D00000E94622E8D3181F484E290E00E94622E66
:101D1000823A51F485E290E00E94622E91E086368C
:101D200009F090E0892F01C080E080FFC1C587E005
:101D300091E090933302809332027FE5272E72E088
:101D4000372E8E010F5F1F4F80919302853009F06F
:101D500047C050E1E52E62E1F62E80919302853076
:101D600009F03AC080919302843021F1109234023C
:101D7000E8E1F0E020E40FB6F894A895E093600065
:101D80000FBE2093600083B7817F846083BF83B7D9
:101D9000816083BF7894889583B78E7F83BF0FB6A9
:101DA000F894A895809160008861809360001092FB
:101DB00060000FBE80918902882309F4CECF0E9473
:101DC0001122E3E5F2E081919191892B09F024C57C
:101DD0002E163F06C1F7C1CF0E9459260E94D61485
:101DE0000E941122882359F08FB7F89440915F0226
:101DF0005091600260916102709162028FBFE3E4D2
:101E0000F2E0A3E5B2E0E12CF12C7E2D2D913D9185
:101E10008191919182279327009779F160E0CC24FA
:101E2000C394D12CAC014C215D21452B09F16BA74A
:101E30007CA72C213D2181E0232B09F480E08DA794
:101E40000E94C72A8160782F9FA78EA74BA55CA50B
:101E50006DA58FA50E942F19F701EE0FFF1FED5BF7
:101E6000FD4F80819181C826D926D182C0821CC0B5
:101E70006F5FCC0CDD1C6F30A9F63FEFE31AF30A5D
:101E800046E0E416F10409F68FEF88AB89AB1AAA95
:101E90000E94C72A8160782F9CAB8BAB48A959A9B7
:101EA0006AA98CA90E942F1986E0EBE3F2E0D80121
:101EB00001900D928A95E1F7C0903D02D0903E02CC
:101EC000E0903F02F090400210923D0210923E02DC
:101ED00010923F0210924002C11003C0DD2009F4AD
:101EE0005DC08091390290913A020E94B82AAC01FB
:101EF00090913802992339F02091060130E024179F
:101F0000350758F04BC0209105018AE0289F9001C9
:101F100011242417350718F041C09F3F19F09F5F27
:101F200090933802CC2061F00E9443211C1414F4D9
:101F300091E001C09FEF899F802D112480933D0285
:101F4000DD2061F00E9443211D1414F491E001C0D2
:101F50009FEF899F802D112480933E0230913D0296
:101F60003323E1F020913E022223C1F045EB3403FC
:101F7000C0011124992319F090933D0203C081E020
:101F800080933D0235EB2303C0011124992319F0FE
:101F900090933E0203C081E080933E02E11003C0B3
:101FA000FF2009F45DC080913602909137020E94B3
:101FB000B82AAC0190913502992339F0209104019F
:101FC00030E02417350758F04BC0209103018AE018
:101FD000289F900111242417350718F041C09F3F16
:101FE00019F09F5F90933502EE2061F00E940A2164
:101FF0001E1414F491E001C09FEF899F802D1124DD
:1020000080933F02FF2061F00E940A211F1414F404
:1020100091E001C09FEF899F802D112480934002A1
:1020200030913F023323E1F0209140022223C1F09E
:1020300045EB3403C0011124992319F090933F021A
:1020400003C081E080933F0235EB2303C0011124DC
:10205000992319F09093400203C081E080934002DD
:1020600080913D0281110BC080913E02811107C019
:1020700080913F02811103C08091400281110E9432
:102080008018CB82DC82ED82FE8286E0F801ABE331
:10209000B2E001900D928A95E1F70E94D6149091DA
:1020A0004102891721F00E94D61480934102809149
:1020B0009302843009F048CE83E08093E900809158
:1020C000E80082FF41CE8091E80085FF21C00E9498
:1020D000152081111BC040E2C42ED12C780109C00B
:1020E0008091F100F70181937F01F1E0CF1AD108CF
:1020F00069F08091E80085FDF3CF8091E8008B774F
:102100008093E8000E941520882399F391E001C094
:1021100090E08091E8008B778093E800992309F4A0
:1021200013CEE0906502F09066028981E114F1041B
:1021300061F08E3F09F06CC38A81833008F4BEC120
:102140008550833008F064C3B9C18B3009F4A0C155
:1021500008F5853009F47AC0A8F48230B9F130F47A
:10216000813009F053C31A8289E076C2833009F4C2
:102170005CC0843009F04AC34C816B818A810E9423
:10218000E01762C0873009F441C308F03FC30E94E2
:1021900049173EC3803109F4BFC060F48D3009F4A3
:1021A00062C008F45EC08E3009F460C08F3009F45C
:1021B00086C02CC3823109F4B4C008F4B0C08331A6
:1021C00009F4D8C08E3F09F479C120C38A818230D6
:1021D00009F465C3833089F0813009F017C32FB744
:1021E000F89480915F0290916002A0916102B09199
:1021F00062022FBFBB83AC8327C0809163029091A2
:102200006402892B09F404C3F801CE010D96A3E5FD
:10221000B2E02C9111963C91119712963283238350
:1022200032968E179F07A9F7F3C28A81823009F090
:10223000EDC26B817C818D819E810E94DA2E86E2C7
:1022400090E00E94702EE4C29D8330C32D813E81B8
:102250003227232732274C816B818A810E941317F2
:10226000D7C280E178C21A8287E9F6C1EA80FB8092
:10227000FE24EF24FE24AC80B12C2DE1A216B10483
:1022800008F0C6C26801C70187599C4F9601201B00
:10229000310B2A153B0508F0BBC237E9E316F10400
:1022A00028F40E94622EF601848302C0F601148293
:1022B000FFEFEF1AFF0A2FEFC21AD20AE4CF809184
:1022C000630290916402892B09F4A2C2EA80FB8028
:1022D000FE24EF24FE24CC80D12C3DE1C316D10492
:1022E00008F096C25801C70187599C4F9501201BE1
:1022F000310B2C153D0508F08BC247E9E416F104BB
:1023000020F4F50164810E94702EFFEFEF1AFF0A9E
:102310002FEFA21AB20AE7CF0E94D91679C284E041
:102320001AC2EA80FB80FE24EF24FE24AC80B12C8C
:102330003DE1A316B10408F06BC26801C70187969E
:102340009601201B310B2A153B0508F061C240EDB8
:10235000E41642E0F40628F40E94622EF60184831B
:1023600002C0F6011482FFEFEF1AFF0A2FEFC21A24
:10237000D20AE4CFEA80FB80FE24EF24FE24AC8066
:10238000B12C3DE1A316B10408F042C2370147E287
:10239000640E711C80EDE81682E0F80608F038C281
:1023A00080ED92E08E199F098A159B0508F430C2D2
:1023B0008091630290916402892B11F068015FC0E3
:1023C000E0FE0FC0C70186960E94622E90E0982F13
:1023D00088272D81822B81159C4531F48FEF8D83C9
:1023E00003C0C12CD12C03C0CC24C394D12CC70171
:1023F0008A0D9B1D450180FF1BC0F1E08F1A9108DB
:10240000B5E04B2E512C4C0E5D1E480C591CC301DF
:102410008A0D9B1D0E94622EF201208130E0322F36
:102420002227282B21153C4519F48FEFF2018083D8
:10243000F801EC0DFD1D2FEFCF01801B910B8815CE
:10244000990508F0BBCF848190E0982F88273581CB
:10245000832B81159C4511F4248325833296ECCF80
:1024600040EDE41642E0F40620F4F60164810E9497
:10247000702EFFEFEF1AFF0A2FEFC21AD20AC70120
:1024800087969601201B310B2A153B0548F3C0C1E6
:102490008091630290916402892B09F4B9C1C8014B
:1024A0000E9474203FEF41EE84E031504040804074
:1024B000E1F700C000000E946E2AAAC1EA818E2FB7
:1024C00090E08E30910508F0A3C1FC01EE59FF4F5A
:1024D0000C94D42E88E0E8E1F1E0DE0191960190C1
:1024E0000D928A95E1F780E2F80111928A95E9F759
:1024F00084E0898388E0FE01B196DE0115960190A3
:102500000D928A95E1F784C184E1898382E08A8310
:102510001B821C827DC18C8190E0982F88272B81A3
:10252000820F911D092E000CAA0BBB0B75E0880FC2
:10253000991FAA1FBB1F7A95D1F7AC01BD01405E60
:102540005F4F6F4F7F4F481759076A077B0708F4A3
:102550005FC18431F2E09F07A105B10508F058C1C1
:10256000453122E052076105710520F044E152E057
:1025700060E070E0481B590BBC0168557E4FC801F4
:102580000E94492E45C140E250E06FEF70E0C80163
:102590000E94EA2E809163028983EA821B821C8258
:1025A00083E08D838DE082C181E090E090936602AC
:1025B0008093650282E390E09093520280935102EF
:1025C0000E94C72A9093500280934F0221C1EF28A6
:1025D000D9F18091590290915A02892F99278295B9
:1025E00086958770209153022170F22EF8228091F7
:1025F0004F02909150020E94B82A85369105F0F062
:10260000FF20E1F00E94C72A9093500280934F026E
:1026100080915102909152020197909352028093BF
:102620005102892B89F4109266021092650281E0B2
:1026300090E0909364028093630206C082E390E08E
:10264000909352028093510280916302898380911A
:1026500065028A83809151028B83DAC010926402F2
:1026600010926302D5C0EB80FC8040E250E06FEF37
:1026700070E0C8010E94EA2E20E131E0A8EAB1E052
:1026800080E090E0AC014E5F5F4F4132510508F0B1
:10269000BFC0F90165917491E616F70630F4F801B0
:1026A000E80FF91F71836083CA01285F3F4FA217AB
:1026B000B30741F7ADC02B813C8180E191E0FC0183
:1026C000459154912417350709F4BCC0089641E0A0
:1026D000883A9407A1F79AC02B813C8188EA91E05F
:1026E00040E1E42E41E0F42EF70145915491421768
:1026F000530709F483C0E8E0EE0EF11C8E159F0528
:1027000099F784C00E94981683C08B81823029F18A
:10271000A8F48823C9F0813009F07AC08C812AE0BE
:10272000F22E6E01F1E2CF0ED11CF6012F2D119287
:102730002A95E9F7B6010E94FE163DC0833061F18B
:10274000843009F441C064C080E2F80111928A9596
:10275000E9F784E089838A835BC06C818AE0FE01AB
:102760003596DE01919601900D928A95E1F76430DD
:1027700070F43AE0639FB0011124675E7C4F4AE039
:1027800050E0CE0181960E94942E80E001C08FEF30
:1027900089830E942A183CC08C819AE0F92E6E0130
:1027A00041E2C40ED11CF6012F2D11922A95E9F7B2
:1027B000B6010E94E9168983F601DE0112960190A6
:1027C0000D92FA94E1F724C06C818AE0FE013596FF
:1027D000DE01919601900D928A95E1F76430B0F494
:1027E0003AE0639FB00111246F5B7C4F4AE050E0F8
:1027F000CE0181960E94942E80E009C0C701029606
:10280000FC01259134912D31310588F18FEF8983B9
:10281000C8010E94742098CAE9BCF9BC09B400FE42
:10282000FDCF8091D8008F7D8093D8008091E0000B
:1028300082608093E0008091E00081FDFCCF0E94E7
:1028400059268BCA9C012E5F3F4FF9014591549147
:1028500040325105D8F6F90145915491FC01349666
:1028600065917491CE0102960E94E12EC5CFFC01C4
:1028700045915491F701349685919491BE016B5F17
:102880007F4F0E94E12E0E947B16F70136968591BC
:102890009491009709F4B0CFFC010995ADCF86E281
:1028A00090E00E94622E1B821C821D828E83B0CF1C
:1028B00060E086E290E00E94702E0E9449170E941C
:1028C000D9166DE183E290E00E94702E62EA84E204
:1028D00090E00E94702E66E685E290E00E94702EE5
:1028E00026CAEEEEF1E0848195812AE030E0B9015C
:1028F0000E94AC2E6093050186818093060182853B
:102900008093140184858093130186859785B9018E
:102910000E94AC2E60930301808980930401828918
:102920008093120184898093110108958091EE01B2
:102930009091EF01909316018093150108950097EF
:1029400041F0EFE9FFE03197F1F700C00000019797
:10295000F6CF089520917B0230917C022817390729
:1029600071F090937C0280937B02E0913202F091AF
:102970003302309721F00084F185E02D0994089509
:102980002091790230917A022817390771F09093DB
:102990007A0280937902E0913202F091330230970B
:1029A00021F00680F781E02D09940895E09132022C
:1029B000F0913302309721F00190F081E02D0994DD
:1029C00080E00895FF920F931F93CF93DF938C01C4
:1029D000EB01F42E8091020182FF3CC08B7F80933B
:1029E00002018091E8019091E9019B01281B390BBC
:1029F00080911501909116012817390750F48091A4
:102A0000E6010E949C26809102018D7F8093020145
:102A100016C080911E03826080931E038091E601A0
:102A20000E949C2680910201826080930201809125
:102A3000090285FF04C086FD02C0F1101EC080910E
:102A40000C0290910D020E949F148091E6010E9459
:102A500064260AC0802F0E9464268091E60190912E
:102A6000E7010817190719F482E00E949D2B0E94C4
:102A7000E62BD093E901C093E801DF91CF911F913C
:102A80000F91FF900895CF93DF93EC0181E0898B44
:102A900090911D038F81892B80931D0390911E03BC
:102AA0008885892B80931E030E94E62BEA81FB8197
:102AB000CE010696309729F06C897D89DF91CF9100
:102AC0000994DF91CF910895EF92FF920F931F9396
:102AD000CF93DF93FC012285211136C0EC01E38006
:102AE000F480F7E5FF1A26E12E9DC0012F9D900D81
:102AF0001124DC01A658BE4F1496ED91FC91159758
:102B000080589E4F309729F054966D917C9155973F
:102B1000099586E18E9D80018F9D100D1124065828
:102B20001E4FF80187810E94A42BF80180850E9426
:102B30009D2B0E94E62B188219861B861E821D8201
:102B40001092790110927801DF91CF911F910F912E
:102B5000FF90EF900895E0E1F2E080E090E08430B3
:102B6000910531F0248127FF148201963596F7CF25
:102B70009093E5018093E4010895CF939091E00153
:102B80009923C9F0882311F0C0E003C01092E0013E
:102B900012C08091E001C817C8F7EC2FF0E0EE0FEB
:102BA000FF1FEE52FE4F808191810E94DB250E9423
:102BB000E62BCF5FEECFCF9108950F931F93CF9366
:102BC000DF93C42FD22FFC0182818823C9F0409368
:102BD000EA010E94C72A909378028093770280E2EC
:102BE0008C0F883008F05BC0C77081E001C0880F8F
:102BF000CA95EAF7DF91CF911F910F910C94FB25B5
:102C00008091EA01481334C0809177029091780254
:102C10000E94B82A2091060230910702821793077A
:102C200038F510E21D0FCD17B9F080E28C0F883017
:102C300040F4C77081E001C0880FCA95EAF70E948E
:102C40000C26183028F581E09D2F977001C0880F61
:102C50009A95EAF70E94FB25802F0E94FB261830E8
:102C6000F0F4D77081E001C0880FDA95EAF70AC066
:102C700080E28C0F883098F4C77081E001C0880F23
:102C8000CA95EAF7DF91CF911F910F910C940C2612
:102C9000802FDF91CF911F910F910C94FB26DF9134
:102CA000CF911F910F9108950F931F93CF93DF93AF
:102CB0000EEE11E0C7EFD2E0CE010E94622EF801C5
:102CC00081938F012196C931F3E0DF07A9F7C0E0B6
:102CD000D0E0FE01EA5EFE4F85919491009711F0DD
:102CE000FC0109952896C839D10599F7DF91CF9154
:102CF0001F910F9108950F931F93CF93DF930EEEC3
:102D000011E0C7EFD2E0CE010E94622EF80161917E
:102D10008F01681719F0CE010E94702E2196C931DB
:102D2000F3E0DF0781F7DF91CF911F910F910895B5
:102D3000EEEEF1E0128E138E8FEA90E091838083A5
:102D400085E0848F88E893E1938382832CE231E0ED
:102D50003583248382E390E09783868385E090E047
:102D6000918780878AE090E09387828744E150E0F2
:102D7000558744873787268724E630E0318B208BC0
:102D800028E030E0338B228B28E230E0358B248B37
:102D900028EC30E0378B268B318F208F158E978F64
:102DA000868F80E590E091A380A30E947B160C940F
:102DB0005416CF93DF93C9E6D3E060E0CE010E94C2
:102DC000702E2196C11584E0D807B9F7DF91CF9115
:102DD0000895843080F49B01982F8AE0989FB00179
:102DE00011246F5B7C4F4AE050E0C9010E94522ED3
:102DF00080E090E008958FEF9FEF0895843080F495
:102E00009B01982F8AE0989FB0011124675E7C4F48
:102E10004AE050E0C9010E94522E80E090E00895FF
:102E20008FEF9FEF08950F931F93CF93DF9384301D
:102E300058F5663048F54F3038F521159CE53907CF
:102E400031F4E0916302F0916402EF2BE9F0890123
:102E5000C42FD0E0CC0FDD1F9EE1699FC00DD11DB6
:102E6000112494EB899FC00DD11D1124612FCE0137
:102E700087960E94702E602FCE018896DF91CF91A9
:102E80001F910F910C94702EDF91CF911F910F9194
:102E900008956F927F928F929F92AF92BF92CF923E
:102EA000DF92EF92FF920F931F93CF93DF93CDB7F3
:102EB000DEB764970FB6F894DEBF0FBECDBFA0900B
:102EC0006302B090640281E090E09093640280938A
:102ED0006302612CC12CD12C712CE12CF12C00E06F
:102EE00010E046018E0C9F1CF801EE0FFF1FE80D4D
:102EF000F91DE454FC4F25913491402F672D862D08
:102F00000E9413170F5F1F4F0F30110569F78EE1F5
:102F1000E80EF11C7394E6E07E12E1CFF4EBCF0EE5
:102F2000D11C639484E06812D7CF0E9498161A824D
:102F300019821C821B821E821D8218861F8288ECC9
:102F400090E09A87898709E113E04AE050E0B801F0
:102F5000CE0101960E94942E065F1F4F0134E3E0DC
:102F60001E0799F77E01FBE0EF0EF11C8AE0F701E6
:102F700011928A95E9F74AE050E0B801C7010E9432
:102F8000942E065F1F4F0936F3E01F07A1F7B0929A
:102F90006402A092630264960FB6F894DEBF0FBE7F
:102FA000CDBFDF91CF911F910F91FF90EF90DF90F8
:102FB000CF90BF90AF909F908F907F906F9008952B
:102FC0000F931F93CF93DF93843008F56630F8F4A6
:102FD0004F30E8F4C42FD0E0CC0FDD1F2EE1629F0C
:102FE000C00DD11D112434EB839FC00DD11D1124C0
:102FF000CE0187960E94622E90E0182F0027CE0106
:1030000088960E94622E9801282BC90102C080E098
:1030100090E0DF91CF911F910F910895462F20915D
:10302000650230916602232B91F47E3F39F46E3FA6
:1030300071F480917502909176020895843038F48D
:10304000763028F46F3018F4672F0C94E01780E086
:1030500090E008958F929F92AF92BF92CF92DF92AD
:10306000EF92FF920F931F93CF93DF93CDB7DEB70D
:103070002A970FB6F894DEBF0FBECDBF0AE711E066
:10308000E12CF12C85EDC82E8AE1D82E90E0A92EF6
:103090009BE1B92E2BE3822E2AE1922EF801D182F8
:1030A000C082B382A28295828482F58AE48ABE01BC
:1030B0006F5F7F4F8E2D0E94FE16892B29F4898524
:1030C0009A85F801938B828BFFEFEF1AFF0A0A5E55
:1030D0001F4F84E0E816F10409F72A960FB6F8941A
:1030E000DEBF0FBECDBFDF91CF911F910F91FF903B
:1030F000EF90DF90CF90BF90AF909F908F9008950A
:103100000E94C72A20913D02211104C020913E0255
:10311000222321F090933A028093390220913F02BA
:10312000211104C020914002222321F09093370204
:1031300080933602E0913202F0913302309749F0E9
:1031400082E080933B020480F581E02D8BE392E0E6
:1031500009940895803F39F480913E0287FF6AC048
:1031600010923E0267C0813F29F480913E021816FA
:10317000BCF360C090913D02823F29F497FF5AC092
:1031800010923D0257C0833F19F41916CCF352C078
:1031900090913F02893F31F419160CF04BC0109208
:1031A0003F0248C08A3F19F497FF44C0F8CF8B3FD5
:1031B00039F48091400287FF3DC0109240023AC02E
:1031C0008C3F29F4809140021816BCF333C0843F31
:1031D00021F480913C028E7F17C0853F21F48091BD
:1031E0003C028D7F11C0863F21F480913C028B7F91
:1031F0000BC0873F21F480913C02877F05C0883F48
:1032000031F480913C028F7E80933C0213C08D3F4D
:1032100021F480919B028E7F0BC08E3F21F4809120
:103220009B028D7F05C08F3F29F480919B028B7F8D
:1032300080939B0280913D02811106C080913E02E5
:10324000811102C01092380280913F02811106C0A4
:1032500080914002811102C0109235020895CF92F0
:10326000DF92FF920F931F93CF93DF93CDB7DEB71B
:1032700067970FB6F894DEBF0FBECDBFF42E4B8B11
:10328000052F5C8B162F6D8B7E8B8F8BCE88DF8806
:10329000A601602F8F2D0E947E2D811109C0809183
:1032A000EC019091ED0101969093ED018093EC017A
:1032B000111110921E03FE013D9686E0DF011D9262
:1032C0008A95E9F78091F0019091F101892B11F134
:1032D0000E94C72A2091190330911A03821B930B75
:1032E0002091F0013091F1018217930740F0809115
:1032F0001B0382FB992790F981E0892701C080E0B8
:1033000080FF03C082E00E94002D0E94CC2B81111F
:103310000E94922BFD860E871F87D98AC88A86E075
:10332000FE013D96DE01179601900D928A95E1F718
:10333000CE0107960E949827811146C086E0FE01C3
:103340003796DE01119601900D928A95E1F7DF80A4
:10335000F8840A851B85A8016F2D8D2D0E947E2D76
:10336000811132C02091AA0230E0C9010196877014
:1033700099274091DB0250E084179507B9F0D98274
:10338000FA821D830C8396E0929FD001939FB00D2B
:103390001124A555BD4FFE01319601900D929A95CD
:1033A000E1F78093AA020E948D2D0EC00E9459263B
:1033B0001092AA021092DB02E4EAF2E086E0DF015A
:1033C0001D928A95E9F719C016E08091DB02909171
:1033D000AA02891791F0189FC001112485559D4FAD
:1033E0000E949827882349F08091DB0290E00196A3
:1033F000877099278093DB02E8CF67960FB6F89421
:10340000DEBF0FBECDBFDF91CF911F910F91FF9017
:10341000DF90CF900895CF93DF9300D000D01F921C
:10342000CDB7DEB79093760280937502811520E2C6
:10343000920748F40F900F900F900F900F90DF912C
:10344000CF910C94C5258EEF89838A831B820E94BD
:10345000C72A8160782F9D838C8349815A816B8133
:103460008D810E942F190F900F900F900F900F9049
:10347000DF91CF9108950F931F93CF93DF938C012A
:10348000EB016BE672E08C2F0E94FE16892B09F08F
:1034900046C080910C0290910D020E949F14DD277E
:1034A000C959DD4F8881F80110821882833079F084
:1034B00048F4813041F1823091F580916D02909114
:1034C0006E0209C0843051F08530E9F028C0809147
:1034D0006F02909170020097B1F01BC08091710251
:1034E000909172020097A9F420916B0230916C02C6
:1034F00080916D0290916E022115310541F0009787
:1035000041F4C90106C080916B0290916C02009752
:1035100031F0DF91CF911F910F910C940B1ADF9135
:10352000CF911F910F910895CF93DF9300D000D0DA
:103530001F92CDB7DEB79093760280937502811506
:1035400020E2920748F40F900F900F900F900F9089
:10355000DF91CF910C94DB258EEF89838A8381E004
:103560008B830E94C72A8160782F9D838C83498139
:103570005A816B818D810E942F190F900F900F90AF
:103580000F900F90DF91CF910895CF93DF93EC01CF
:103590000E94941A80910C0290910D020E949F1437
:1035A000CE01DF91CF910C940B1A0F931F93CF9301
:1035B000DF938C01862F6BE672E00E94FE16892B4A
:1035C000D1F4C0916B02D0916C022097A1F0F80168
:1035D0008081833039F4CE010E94C51ACE010E9449
:1035E000C51A02C0843038F0CE01DF91CF911F910F
:1035F0000F910C94C51ADF91CF911F910F910895EF
:103600000F931F93CF93DF938C01EB016BE672E076
:103610008C2F0E94FE16892B09F06DC0DD27F80162
:103620008081813041F49185911115C09285992353
:1036300091F082E010C0823049F4F8018185811157
:1036400007C08285811106C083E005C086E003C003
:1036500085E001C084E0C959DD4F88838330B1F033
:1036600028F4813071F0823031F045C08430A9F007
:10367000853079F140C080916D0290916E02009783
:10368000A1F580916B0290916C0220C080916F0235
:10369000909170020097E9F028C08091710290919A
:1036A0007202009711F580916B0290916C02009765
:1036B00049F00E94C51A80916D0290916E020097A8
:1036C00081F013C080916D0290916E02009799F085
:1036D0000CC080916B0290916C02009761F00E9487
:1036E000C51A80916B0290916C02DF91CF911F916E
:1036F0000F910C94941ADF91CF911F910F9108951F
:103700000F931F938091940290919502A09196023D
:10371000B09197028C019D01067011272227332753
:10372000BC01CD01063011052105310511F4686099
:1037300001C0677F1F910F910C94D12C1F93CF93E1
:10374000DF93CDB7DEB7AA970FB6F894DEBF0FBEF2
:10375000CDBFEBE8F2E08091F100819342E0E339E4
:10376000F407C9F780918C02833009F462C030F409
:10377000813071F0823009F49CC0B3C08A3009F402
:1037800088C08B3009F46DC0893009F0AAC020C010
:1037900080918B02813A09F0A4C08091E800877F74
:1037A0008093E80080918F0290919002892B21F400
:1037B00068E080E892E003C060E080E090E070E0C4
:1037C0000E94EB2D8091E8008B778093E80089C000
:1037D00080918B02813209F084C080918F02909198
:1037E0009002009719F0029709F07BC08091E800E1
:1037F000877F8093E8008091E80082FD05C080917A
:1038000093028111F8CF6DC02091F3008091F200F6
:1038100090E0922B029729F48091F1008B7F813008
:1038200021F48091F10080937F028091E8008B77F2
:1038300054C080918B02813A09F053C080918F026D
:1038400090919002892B09F04CC08091E800877F0D
:103850008093E8008091E80080FFFCCF8091170101
:1038600037C080918B028132E1F580918F02909177
:103870009002892BB1F58091E800877F8093E80062
:103880000E94972D80918D02809317010E945926E6
:1038900028C080918B02813221F58091E800877FDA
:1038A0008093E8000E94972D80918E0280937E0283
:1038B00018C080918B02813AA1F48091E800877F43
:1038C0008093E8008091E80080FFFCCF80917E0229
:1038D0008093F1008091E8008E778093E8000E9449
:1038E000972D8091E80083FFE9C180918B02909130
:1038F0008C02492F50E04A30510508F0DFC1FA012F
:10390000E059FF4F0C94D42E803821F0823809F012
:10391000D5C108C08091880290918902992389F0CD
:1039200082600FC080918F028F70873008F0C6C10F
:103930008093E9008091EB0085FB882780F9109245
:10394000E9009091E800977F9093E8008093F10060
:103950001092F1007CC1282F2D7F09F0AFC1882380
:1039600019F0823061F0AAC180918D02813009F096
:10397000A5C1933009F080E0809389022EC0809128
:103980008D0281112AC080918F028F702FEF280F36
:10399000263008F093C18093E9002091EB0020FFCE
:1039A0001CC0933021F48091EB00806214C0909190
:1039B000EB0090619093EB0021E030E0A90102C0A0
:1039C000440F551F8A95E2F74093EA001092EA00EF
:1039D0008091EB0088608093EB001092E900809169
:1039E000E800877F8093E8000E94972D67C18111CE
:1039F00065C110918D021F778091E3008078812B43
:103A00008093E3008091E800877F8093E8000E9424
:103A1000972D8091E80080FFFCCF8091E3008068C3
:103A20008093E300111102C082E001C083E0809323
:103A3000930244C18058823008F040C120918D0229
:103A400030918E022C3D53E0350779F583E08A836F
:103A50008AE289834FB7F894DE01139620E03EE0B6
:103A600051E2E32FF0E050935700E49120FF03C0B0
:103A7000E295EF703F5FEF708E2F90E0EA3010F02C
:103A8000C79601C0C0968D939D932F5F243149F74F
:103A90004FBF8091E800877F8093E8006AE270E082
:103AA000CE0101960E94EB2DC0C080918F029091B3
:103AB0009002432F552743305105B1F068F441304F
:103AC000510509F40AC14230510509F0F7C08BE5F0
:103AD00090E0EFE6F7E057C04132510589F14232FC
:103AE000510509F43CC0EAC0C9019927813091050C
:103AF000B9F070F082309105D9F0039709F0DEC07B
:103B0000ECEDF7E0E4918E2F90E0ECEDF7E038C0BB
:103B1000E2E2F8E0E4918E2F90E0E2E2F8E030C0DB
:103B2000EAE0F8E0E4918E2F90E0EAE0F8E028C0C7
:103B3000EAEFF7E0E4918E2F90E0EAEFF7E020C0A3
:103B40008330910508F0BAC0880F991FFC01E25C30
:103B5000FE4F0190F081E02D89E090E014C08330A9
:103B6000910508F0ABC0FC01EE0FFF1FE85CFE4FB3
:103B70000190F081E02DDC01AB5CBE4F8C9190E0B8
:103B8000009709F49BC02091E800277F2093E8006C
:103B900020919102309192022817390708F4C90147
:103BA00040E0009789F120919302222309F43DC05F
:103BB0002530D9F12091E80023FD37C02091E8009D
:103BC00022FD2FC02091E80020FFEBCF4091F300B1
:103BD0002091F20030E0342B009759F02830310565
:103BE00040F444914093F100319601972F5F3F4F8D
:103BF000F3CF41E02830310509F040E02091E800A2
:103C00002E772093E800CDCF4111CDCF0AC080910F
:103C10009302882351F0853041F08091E80083FDC4
:103C200004C08091E80082FFF2CF8091E8008B779A
:103C30008093E80043C0803809F040C08091E800DC
:103C4000877F8093E80080918A028093F1008091C1
:103C5000E8008E77C7CE811131C080918D0290919E
:103C60008E029927029754F58091E800877F809310
:103C7000E80010918D0210938A020E94972D111175
:103C800006C08091E30087FD02C081E001C084E0AE
:103C90008093930242E061EC81E00E94B62D42E203
:103CA00061EC84E00E94B62D42E261EC82E00E9469
:103CB000B62D42E260EC83E00E94B62D8091E800D0
:103CC00083FF10C08091E800877F8093E800809197
:103CD000EB0080628093EB0005C082E190E0EAECAB
:103CE000F7E051CFAA960FB6F894DEBF0FBECDBF56
:103CF000DF91CF911F9108951F920F920FB60F92EF
:103D000011242F933F934F935F936F937F938F93E0
:103D10009F93AF93BF93CF93DF93EF93FF93C091A4
:103D2000E900CF708091EC00D82FD17080FDD0E8F1
:103D30001092E9008091F000877F8093F0007894E2
:103D40000E949E1B1092E9008091F0008860809391
:103D5000F000CD2BCF70C093E900FF91EF91DF9180
:103D6000CF91BF91AF919F918F917F916F915F9113
:103D70004F913F912F910F900FBE0F901F9018956C
:103D8000E8EDF0E080818E7F80831092E200109257
:103D9000DA001092E100A0EEB0E08C9181608C938B
:103DA00080818F77808319BCA7EDB0E08C918E7FE6
:103DB0008C9380818F7E808310927D020895CF92B4
:103DC000DF92EF92FF920F931F93CF93DF93C8ED93
:103DD000D0E088818F7E8883E7EDF0E0808181608C
:103DE000808384E082BF81E080937D0288818E7F22
:103DF000888302EE10E0F80110821092DA0081EE62
:103E0000C82ED12CF601108288818F778883888113
:103E10008068888388818F7D888319BC1092930283
:103E200010928A02109289021092880290EEE92E76
:103E3000F12CF70180818B7F80838881816088836A
:103E400042E060E080E00E94B62DF60180818E7F26
:103E50008083F80180818160808380818860808395
:103E6000F70180818E7F8083888180618883DF91E4
:103E7000CF911F910F91FF90EF90DF90CF90089519
:103E80001F920F920FB60F9211242F933F934F93CF
:103E90005F936F937F938F939F93AF93BF93EF93B2
:103EA000FF938091E10082FF09C08091E20082FFD0
:103EB00005C08091E1008B7F8093E1008091DA0062
:103EC00080FF2AC08091D80080FF26C08091DA0050
:103ED0008E7F8093DA008091D90080FF18C080E146
:103EE00089BD82E189BD09B400FEFDCF81E08093E8
:103EF000930280917D0281110FC00E94C01E0E941A
:103F0000DF1E8091E20084608093E20005C019BC4E
:103F10001092930210927D028091E10080FF17C001
:103F20008091E20080FF13C08091E2008E7F809339
:103F3000E2008091E20080618093E2008091D800ED
:103F400080628093D80019BC85E0809393028091B1
:103F5000E10084FF2EC08091E20084FF2AC080E14E
:103F600089BD82E189BD09B400FEFDCF8091D800F2
:103F70008F7D8093D8008091E1008F7E8093E10057
:103F80008091E2008F7E8093E2008091E200816068
:103F90008093E20080918A02882311F084E007C0B8
:103FA0008091E30087FD02C081E001C083E080933F
:103FB00093028091E10083FF27C08091E20083FF9C
:103FC00023C08091E100877F8093E10082E08093AD
:103FD000930210928A028091E1008E7F8093E1002B
:103FE0008091E2008E7F8093E2008091E200806108
:103FF0008093E20042E060E080E00E94B62D809174
:10400000F00088608093F000FF91EF91BF91AF9135
:104010009F918F917F916F915F914F913F912F91E0
:104020000F900FBE0F901F9018952091E4003091D3
:10403000E50095E64091EC00842F817040FF23C09D
:104040008091E80080FD1DC080919302882399F043
:10405000853099F08091EB0085FD11C04091E4001E
:104060005091E5002417350729F3915011F09A017A
:10407000E1CF84E0089582E0089583E0089581E02F
:10408000089580E008954091E80042FFDDCF089553
:10409000EF92FF920F931F93CF93DF937C018B01DD
:1040A0000E941520811119C0E70101151105A1F029
:1040B0008091E80085FD0AC08091E8008E778093AA
:1040C000E8000E941520882381F307C0899180931E
:1040D000F10001501109E9CF80E0DF91CF911F91EC
:1040E0000F91FF90EF900895CF9320919302243089
:1040F000F9F4C091E900CF703091EC00232F2170CA
:1041000030FD20E8C22B22E02093E9002091E80056
:1041100020FF0BC040E050E060E270E00E944820C9
:104120008091E8008E778093E800CF70C093E9001B
:10413000CF9108959091240292FF0DC0282F2871ED
:10414000283019F4877F846006C0282F247124301A
:1041500011F48B7F886093FF0DC0282F28712831C0
:1041600019F4877E846106C0282F2471243111F44C
:104170008B7E88612091250220FF0DC0382F387179
:10418000383019F4877F816006C0382F31713130A3
:1041900011F48E7F886021FF0DC0282F28712831EF
:1041A00019F4877E816106C0282F2171213111F415
:1041B0008E7E886194FD877E08959C013A95211535
:1041C0003F4138F5DC01AA27B270AC014427547096
:1041D0009C012227387094FF0FC090FF02C080E13D
:1041E00001C080E0AB2B09F08062452B09F08064B0
:1041F000232B69F080680BC0892F8170AB2B09F0ED
:104200008260452B09F08460232B09F08860FB0154
:104210000994089580919B0280FF08C0609112016B
:1042200070E0759567957595679521C081FF06C00B
:104230006091120170E07595679519C082FF04C006
:104240006091120170E010C090913502992399F0AD
:10425000609111019617A0F780911201899FC0010A
:10426000112470E00E94C02E6038710540F4611581
:10427000710519F406C061E070E0862F08958FE79C
:10428000089581E0089580919B022091F60130917C
:10429000F70180FF0CC080911401829FB001839FC1
:1042A000700D112476956795769567952FC081FFDF
:1042B0000AC080911401829FB001839F700D112468
:1042C0007695679523C082FF08C080911401829F74
:1042D000B001839F700D112419C040913802411123
:1042E00002C0B90113C060911301461770F78091A5
:1042F0001401849FA0011124429FC001439F900D8F
:10430000529F900D112470E00E94AC2E6038710510
:1043100028F46115710521F0862F08958FE708951F
:1043200081E00895803F21F40E944321819504C0DB
:10433000813F29F40E94432180933E020895823FE9
:1043400021F40E944321819504C0833F29F40E94F7
:10435000432180933D020895893F19F40E940A2168
:1043600005C08A3F31F40E940A21819580933F0263
:1043700008958B3F21F40E940A21819504C08C3F4F
:1043800029F40E940A21809340020895843F21F479
:1043900080913C02816017C0853F21F480913C02EE
:1043A000826011C0863F21F480913C0284600BC082
:1043B000873F21F480913C02886005C0883F31F43A
:1043C00080913C02806180933C0208958D3F21F4EE
:1043D00080919B0281600BC08E3F21F480919B02F3
:1043E000826005C08F3F29F480919B028460809396
:1043F0009B020895F894E82FE295EF70F0E031A168
:10440000282F2F7081E090E001C0880F2A95EAF7ED
:10441000982F9095932391A392A1892B82A37894AE
:1044200008958F929F92AF92BF92CF92DF92EF92B8
:10443000FF920F931F93CF93DF9380E2E82E81E0EA
:10444000F82EC6E2D2E092E3A92E92E0B92E10E057
:10445000CC24C394D12CB701D7018C91F894E82FC8
:10446000E295EF70F0E021A18F70A60102C0440F29
:10447000551F8A95E2F7CA01922F982B91A392A11A
:104480008095892382A3789400C0E6E2F1E020E0E1
:1044900030E0812C912C4191842F82958F7090E097
:1044A000DC0190968C9190E04F7002C095958795B5
:1044B0004A95E2F780FD08C0C601022E02C0880FAF
:1044C000991F0A94E2F702C080E090E0882A992AB6
:1044D0002F5F3F4F2F303105F1F6BFEFEB1AFB0A8C
:1044E000FB0180810E94FA21F0EAFA95F1F78881B8
:1044F00099818816990621F09982888281E001C00D
:1045000080E0182B2296AC16BD0609F0A4CF11232B
:1045100049F081E080939A020E94C72A9093990201
:104520008093980280919A028823D1F18091980219
:10453000909199020E94B82A069790F180912602E4
:104540009091270290935402809353028091280205
:1045500090912902909356028093550280912A02ED
:1045600090912B02909358028093570280912C02D5
:1045700090912D0290935A028093590280912E02BD
:1045800090912F0290935C0280935B0280913002A5
:104590009091310290935E0280935D0210929A0294
:1045A000809100018F3F41F1D12C06E11BC00E9D8F
:1045B000F0010F9DF00D1124E658FE4FA288B3883C
:1045C000A114B10421F4A0900602B09007020E9D40
:1045D000E0010F9DD00D1124C658DE4F8E81811150
:1045E00010C0D394ED2CF12C80910001082E000C0A
:1045F000990B8E159F05DCF680910101811118C081
:104600002BC08D859E850E94B82AA816B90648F74A
:104610008989811103C0CE010E9443150E9DC001FE
:104620000F9D900D112480589E4F0E946415D9CF84
:104630008091E1019091E201009771F00E94B82A07
:1046400020910402309105022817390728F481E0EF
:104650000E94BD150E94AB158091090280FF1CC00D
:104660008091020182FF18C00E94C72A2091E801B0
:104670003091E901AC01421B530B2091150130919F
:1046800016014217530740F041E0BC018091E6015A
:104690009091E7010E94E214812FDF91CF911F9149
:1046A0000F91FF90EF90DF90CF90BF90AF909F90D1
:1046B0008F900895CF93DF930E940E18EC018238FB
:1046C000910559F1A0F48133910509F473C040F4C8
:1046D0008932910509F467C08A9709F472C084C0D1
:1046E0008533910509F458C0C997B9F07DC0833E60
:1046F000910571F138F4803E9105B1F0823E91054B
:1047000011F172C0863E9105B9F1873E9105C9F15C
:10471000843E910509F068C024C08091240280FD88
:104720005DC081FD5BC060C08091240280FD50C0EF
:104730008091250280FF49C18091240284FD43C1FC
:10474000C3EED0E042C18091240282FF3EC1F4CF8B
:104750008091240282FD3FC08091250280FD3EC0F1
:10476000EBCF8091250281FF30C18091240284FD2E
:104770002AC1C7EED0E029C18091240283FF25C160
:10478000F4CF8091240283FD2CC08091250281FF0B
:10479000ECCFC4EED0E019C18091240285FF15C191
:1047A000C9E2D0E012C18091240285FF0EC1C5E3A9
:1047B000D0E00BC18091240286FF07C1CAE2D0E09D
:1047C00004C18091240286FF00C1C1E3D0E0FDC096
:1047D000C9E3D0E0FAC0C2EED0E0F7C0C0EED0E04E
:1047E000F4C0C6EED0E0F1C0C11581E5D80708F0ED
:1047F00066C0C11520E5D207E0F0CE0174E09695C1
:1048000087957A95E1F783709C2F937021E030E0D3
:1048100002C0220F331F9A95E2F73C68382BCF7005
:10482000C695C69540E2C49FE0011124C22BD32B4C
:10483000CCC0C83ED10560F5C03ED10508F0C5C06A
:10484000C83AD105B0F4C53AD10540F0C55AD0E018
:10485000CC5BDE4FC881D0E0D064B7C0C130D10599
:1048600009F4B3C008F4AFC0C430D10508F4ABC03C
:10487000ACC0CF3BD10508F0A6C0C85AD0E0CC0FE1
:10488000DD1FC95BDE4F0990D881C02DD4649DC067
:10489000C11540E2D40758F4C11581E0D80708F0EB
:1048A00094C0C03FD10508F48EC0D0658EC0C1153C
:1048B00020E4D20708F487C0DF70D06A86C0C11533
:1048C00045E5D40708F042C0C11584E5D80728F0B3
:1048D000DC2FCC27C46FD06A78C0C11523E5D2077E
:1048E000B0F0CE018370992721E030E002C0220FA2
:1048F000331F8A95E2F78C2F8695869540E2849F38
:10490000C0011124E901C82BD92BDA685EC0C1159A
:1049100042E5D40728F4DC2FCC27C16FD06A55C0FC
:10492000CE018370992721E030E002C0220F331FAF
:104930008A95E2F78C2F8695869540E2849FC00188
:104940001124E901C82BD92BDC683FC0C11589E5CA
:10495000D807B8F4C11528E5D20728F0DC2FCC27FA
:10496000C06FD06A32C0C11546E5D40760F58C2F00
:104970000E949A208F71C82FD0E0DC2FCC27D06204
:1049800024C0C1158AE5D80780F48C2F8F700E944F
:104990009A2094E0D695C7959A95E1F7CF70D0E02C
:1049A000DC2FCC27D069C82B10C0CE0190568115C2
:1049B000904248F48D2F8F710E949A20DD27D0629B
:1049C0008F71D82B02C0C0E0D0E0CE01DF91CF9133
:1049D0000895AF92BF92CF92DF92EF92FF920F9322
:1049E0001F93CF93DF93EC018AE0A82E2881222326
:1049F00009F497C0213009F041C08981813039F430
:104A00008E010E5F1F4F8A810E94FB2608C08230F4
:104A100041F48E010E5F1F4F8A810E949C26E8019F
:104A20007EC0833039F48E010E5F1F4F8A810E9451
:104A30006426F5CF843011F0219671C02A81229628
:104A400080E090E030E0205331092A30310558F4FD
:104A5000A89EA001A99E500D1124C901840F951F85
:104A600021962881EFCF009709F459C0EFE9FFE0C4
:104A70003197F1F700C000000197F5CFE22FF0E089
:104A8000EA5AF74FB490822F86958695869590E0E6
:104A9000FC01EA5BF74FE4902770F12C022E02C074
:104AA000F594E7940A94E2F7F1E0EF22FF24FC0189
:104AB000EA5CF74FC490D12C022E02C0D594C79463
:104AC0000A94E2F731E0C322DD24FC01EA5DF74FEE
:104AD000049110E002C0159507952A95E2F7017040
:104AE0001127E114F10419F081EE0E949C26C114F3
:104AF000D10419F086EE0E949C268B2D0E94FB2685
:104B0000CD2819F086EE0E946426EF2819F081EE78
:104B10000E946426012B19F08CE20E94FB2621964C
:104B200065CFDF91CF911F910F91FF90EF90DF90B4
:104B3000CF90BF90AF9008951F93CF93DF9300D095
:104B400000D01F92CDB7DEB749835A8389819A81FD
:104B5000662359F0222349F00E94272C182F682F32
:104B600089819A810E94A42C03C00E94742C182F62
:104B700069817A81812F0F900F900F900F900F9085
:104B8000DF91CF911F910C940E18CF93DF93EC011E
:104B90000E946426CE01805E9109089710F020974C
:104BA00019F46CE076E202C065E076E2CE01DF91B6
:104BB000CF910C94DD20CF93DF93EC01805E9109BF
:104BC000089710F0209719F46BEF75E202C061EFBF
:104BD00075E2CE010E94DD208C2FDF91CF910C94E5
:104BE0009C26882339F090911E03892B80931E0305
:104BF0000C94E62B0895882339F090911D03892B9E
:104C000080931D030C94E62B0895882321F00E94C5
:104C10009D2B0C94E62B0895882321F00E94A42B51
:104C20000C94E62B0895E92FE295EF704E2F50E09B
:104C3000FA013297EE30F105B0F4E658FF4F0C94CC
:104C4000D42E803F91F018F4883E68F40EC0843F63
:104C500051F40BC0883E48F0813F29F406C093FB15
:104C6000882780F9089580E0089581E008950E94E2
:104C7000692C0E941326089580E090E00E94C014E1
:104C800080E090E00E94AA1410921E0310921C0370
:104C90000E94E62BEBE3F2E086E0DF011D928A95AD
:104CA000E9F7109238021092350210929B020C9490
:104CB000801810921D0386E0EEE9F2E0DF011D92FC
:104CC0008A95E9F70C943C268823A9F19CEF980F6C
:104CD000913A60F4ECE9F2E09281891301C012820A
:104CE000319692E0E23AF907B9F70DC090E2980FD9
:104CF000983058F4877091E001C0990F8A95EAF7CF
:104D0000892F0E94A42B0C94E62B9BE5980F9330DF
:104D100020F480E090E00C94C01498E5980F97314F
:104D200020F480E090E00C94AA14803F20F00E94D0
:104D3000AA180C9480180895CF93882309F459C0B9
:104D4000C82F8CEF8C0F813AF8F4EEE9F2E084EA98
:104D500092E02191C21721F08E179F07D1F70EC064
:104D6000ECE9F2E082EA92E02281C21301C01282F1
:104D700031968E179F07C1F70E94E62B6C2F8CE9A6
:104D800092E00E94FC2A10C080E28C0F883078F4F8
:104D9000C77081E090E001C0880FCA95EAF7909152
:104DA0001D03892B80931D03CF910C94E62BEBE51B
:104DB000EC0FE33040F4F0E0EC5BFE4F808190E0DC
:104DC000CF910C94C014E8E5EC0FE73150F4F0E01B
:104DD000EE0FFF1FE95BFE4F80819181CF910C9414
:104DE000AA14C03F30F08C2F0E949221CF910C94D6
:104DF0008018CF9108951F93CF93DF93182F893395
:104E000029F4C0910E02D0910F0204C0C0910C028F
:104E1000D0910D02812F0E949C26209741F08FE9AE
:104E20009FE00197F1F700C000002197F6CF812F96
:104E3000DF91CF911F910C946426BF92CF92DF92A5
:104E4000EF92FF920F931F93CF93DF938091A9026C
:104E500082958F7009F062C08091A602882309F4C0
:104E60005DC0C091DB0286E0B82E8091AA02C8170F
:104E700009F454C0F090A402E090A502C090A702EB
:104E8000D090A802A6016E2D8F2D0E947E2DD0E01D
:104E9000811141C0BC9E8001BD9E100D1124F801FE
:104EA000E555FD4F51815E1136C040814F1133C031
:104EB0008281811130C0E380F480EC18FD0820E08D
:104EC0006091A6027091A7028091A8020E949C2581
:104ED0008091060290910702E816F906E0F48091AD
:104EE000A9028F7080618093A902F801E055FD4FFF
:104EF00080818F708061808384EA92E00E94B40494
:104F0000DF91CF911F910F91FF90EF90DF90CF90A5
:104F1000BF900C948D2D2196C770A7CFDF91CF91B4
:104F20001F910F91FF90EF90DF90CF90BF90089569
:104F30004F925F926F927F928F929F92AF92BF92A9
:104F4000CF92DF92EF92FF920F931F93CF93DF9355
:104F5000CDB7DEB761970FB6F894DEBF0FBECDBFF9
:104F60008C0185E0F801DE011D9601900D928A9575
:104F7000E1F7D801EC901196FC90119712966C9085
:104F800084EAA82E82E0B82E8090A7029090A80212
:104F9000A4016091A5028091A4020E947E2D782E2A
:104FA0008111DBC1F801C380D4804090A602C60104
:104FB000881999094C0120E04091A4025091A50262
:104FC000442009F457C1642D7091A7028091A80272
:104FD0000E949C2580910602909107025090A902A0
:104FE0008816990608F013C14091A7025091A802B3
:104FF000B090A402A090A502852D807F6A2D09F0B3
:10500000A5C08B2D0E947E2D811115C0AF1013C03D
:10501000BE1011C061100FC0852D8F70806180930C
:10502000A90284EA92E00E94B4048091A902D80106
:1050300015968C93B1C120E04091A4025091A50235
:105040006091A6027091A7028091A8020E949C25FF
:105050008091060290910702843F914050F0A60192
:105060006F2D8E2D0E947E2D811115C081E0862529
:1050700014C020E04091A4025091A5026091A602C4
:105080007091A7028091A8020E949C2580910B023A
:1050900080FDE5CF17C080E090E080FF13C0462D73
:1050A0006F2D8E2D0E945E2D882361F084EA92E0A0
:1050B0000E94B404E4EAF2E086E0DF011D928A95E2
:1050C000E9F76AC1A6016F2D8E2D0E947E2D8111F8
:1050D00003C081E0862502C080E090E0B82FB17067
:1050E000CB2E80FF2AC0462D6F2D8E2D0E945E2D67
:1050F000D82E811122C0ED86FE868D859E850E9468
:10510000692C292F22952F70223018F0243078F442
:1051100005C09F7049F0811107C00DC09F7021F03C
:10512000F8019581907F39F0805E883020F0C801C9
:105130000E94B404DC2C7D2C2FC1662009F42BC105
:105140008091A90281608093A90226C18B2D0E94C3
:105150007E2D811115C0AF1013C0BE1011C061109B
:105160000FC0D80115965C92C8010E94B40486E075
:10517000F801A4EAB2E001900D928A95E1F760C0CF
:10518000ED86FE868D859E850E9437268823C9F18F
:105190006620B9F12091A902822F82958F7090E04C
:1051A000029774F08091A4029091A50298878F8352
:1051B0001986DB86CA862C87CE0107960E94B40426
:1051C00086E0F801A4EAB2E001900D928A95E1F739
:1051D0000E941D2719C09090A4028090A5024091C2
:1051E000A7025091A802682D892D0E947E2D882348
:1051F000B1F0ED86FE868D859E850E943726811151
:1052000021C0C8010E94B40477247394C5C0852DC1
:10521000807F09F784EA92E00E94B40498C08F105E
:10522000E8CF9E10E6CF6110E4CFD80115965C92CE
:10523000C8010E94B40486E0F50111928A95E9F74D
:10524000742CAAC06620E9F22091A902822F8295CF
:105250008F7090E002970CF4B3CF8091A4029091EC
:10526000A5029A8389831B82DD82CC822E83CE01A4
:105270000196A4CF60E07091A7028091A8020E94DD
:105280009C2580910602909107028816990608F0E5
:105290005EC0762C662009F4B4CFC090A402D090F2
:1052A000A5024091A7025091A8026D2D8C2D0E945D
:1052B0007E2D81113BC0DF1039C0CE1037C020E0F9
:1052C000A6016091A6027091A7028091A8020E9497
:1052D0009C2580910B0282FD20C08091A90280FD57
:1052E0001CC082958F70482F50E041155105A9F0E0
:1052F0002091A902D80115962C9315974F3051058E
:1053000049F08F5F982F9295907F822F8F70892B15
:1053100015968C93C8010E94B40486E0F801A4EAB3
:10532000B2E001900D928A95E1F736C0ED86FE86D7
:105330008D859E850E943726811142CF8091A902DA
:1053400081608093A902C8010E94B40425C086E050
:10535000F50111928A95E9F71FC0662009F451CF33
:10536000ED86FE868D859E850E943726782E8823C1
:1053700009F447CF86E0F801A4EAB2E001900D926B
:105380008A95E1F78091A4029091A5020E94692C70
:105390000E941D2701C0712C872D61960FB6F894CD
:1053A000DEBF0FBECDBFDF91CF911F910F91FF9058
:1053B000EF90DF90CF90BF90AF909F908F907F90B5
:1053C0006F905F904F90089580917F02089580E0E4
:1053D0000895CF93DF9300D01F92CDB7DEB79091A1
:1053E0009302943011F589837B836A839093E9005B
:1053F0008FEF9091E800815095FD06C095ED9A954C
:10540000F1F700008111F5CF8091E80085FF0DC014
:1054100040E050E063E070E0CE0101960E94482039
:105420008091E8008E778093E8000F900F900F90A6
:10543000DF91CF910895BC0184E00C94E929BC016F
:1054400083E00C94E92924E02093E9002FEF3091C8
:10545000E800215035FD06C035ED3A95F1F7000022
:105460002111F5CF2091E80025FF0BC040E050E06E
:1054700066E070E00E9448208091E8008E7780937B
:10548000E8000895CF93DF9321E02093E9002FEF08
:105490003091E800215035FD06C035ED3A95F1F721
:1054A00000002111F5CF2091E80025FF14C0EC0188
:1054B00040E050E068E070E00E9448208091E80001
:1054C0008E778093E80088E0FE01A0E8B2E00190CA
:1054D0000D928A95E1F7DF91CF91089581E0809355
:1054E000E00080E28093D8001092C9008FE19EE432
:1054F0000197F1F700C0000087E090EBDC0180939A
:10550000260390932703A0932803B09329039CE0DC
:1055100088E10FB6F894A895809360000FBE909331
:105520006000FFCF78941F920F920FB60F92112454
:105530008F939F93AF93BF9380915F02909160028E
:10554000A0916102B09162020196A11DB11D8093EC
:105550005F0290936002A0936102B0936202BF91D8
:10556000AF919F918F910F900FBE0F901F90189544
:105570009C014FB7F89480915F0290916002A091D6
:105580006102B09162024FBF821B930B08952FB747
:10559000F89480915F0290916002A0916102B091B5
:1055A00062022FBF08951F920F920FB60F9211241F
:1055B0008F939F93AF93BF9380913402811113C057
:1055C00080915F0290916002A0916102B0916202AD
:1055D0004196A11DB11D80935F0290936002A0933C
:1055E0006102B0936202BF91AF919F918F910F9032
:1055F0000FBE0F901F9018959C01FC0132969FEFF3
:1056000080E04191461789F09F3F19F4411101C094
:10561000982F8F5F8630A9F79F3F39F0F901E90F86
:10562000F11D97FDFA95628308950895CF9384E064
:1056300090E00E94622EC82F82E290E00E94622ECB
:105640002C2F30E0A901582BCA01CF9108956AEEA2
:105650007EEF80E090E00E948E2E60E082E090E09D
:105660000E94702E60E083E090E00E94702E109205
:10567000220310922303109224031092250360E06A
:1056800084E090E00E94702E60E082E290E00E9450
:10569000702E60E085E090E00E94702E60E086E071
:1056A00090E00E94702E6FEF87E090E00E94702ED5
:1056B00040E050E0BA0188E090E00E94822E60E075
:1056C0008DE090E00E94702E40E050E0BA0188E149
:1056D00090E00E94822E60E087E190E00E94702EB0
:1056E00040E050E0BA018CE190E00E94822E60E040
:1056F00070E080E290E00E948E2E40E050E0BA011F
:1057000088E190E00E94822E40E050E0BA018FE0F4
:1057100090E00E94822E40E050E0BA0183E190E0E8
:105720000C94822E80912103882331F01092210362
:105730001092200310921F030895809590911E03EC
:10574000892380931E030895809590911D038923DA
:1057500080931D030895CF93C0912502C2FB992722
:1057600090F9981781F080FBC2F9C09325026091EF
:10577000240284E090E00E94702E6C2F82E290E080
:10578000CF910C94702ECF91089510921B0310921C
:105790001A031092190308958091F0019091F1017C
:1057A000892B89F00E94C72A20911F033091200382
:1057B000AC01421B530B81E02091F0013091F101CB
:1057C0004217530708F480E08170089590911D03FB
:1057D00080911E03892B90911C03892B80939C023E
:1057E00080912103882301F18091F0019091F101D2
:1057F000892B29F00E94CC2B81110E94922B909131
:105800009C0280912103892B80939C02EEE9F2E0B7
:1058100097E080E0915029F021912223D9F38F5F06
:10582000F9CF81110E94922BE0913202F091330264
:10583000309731F00280F381E02D8CE992E00994F9
:105840000895809118038111109218030895BF9252
:10585000CF92DF92EF92FF920F931F93CF93DF933C
:105860008C01C0909402D0909502E0909602F09046
:1058700097028091220390912303A0912403B09179
:105880002503C82AD92AEA2AFB2ACFE1D0E0D7018A
:10589000C6010C2E04C0B695A795979587950A94D6
:1058A000D2F780FD04C0219790F7B12C07C0BC2E21
:1058B000B8018C2F0E945A230197A9F38B2DDF91F9
:1058C000CF911F910F91FF90EF90DF90CF90BF90FD
:1058D0000895CF93DF93EC010E94272CBE010E9414
:1058E0005A23DF91CF9108959E3F61F12FE0929F5F
:1058F000800D1124682F669566956695982F977090
:1059000085E0689FB001112440E050E080E0FB0199
:10591000E40FF51FE452FD4F208130E0092E02C054
:10592000369527950A94E2F721703327042E01C09B
:10593000220F0A94EAF7822B4F5F5F4F45305105E3
:1059400031F7089580E008959E3F51F12FE0929F36
:10595000800D1124E82FE695E695E695877051E0D5
:1059600001C0550F8A95EAF785E0E89FF001112400
:10597000E452FD4F20E030E070E04081CB01022E88
:1059800002C0969587950A94E2F7817081958427E5
:105990008523842781932F5F3F4F2530310569F799
:1059A0000895609394027093950280939602909369
:1059B00097020C943C260F931F9341E050E060E067
:1059C00070E004C0440F551F661F771F8A95D2F7F9
:1059D00040955095609570958091940290919502B4
:1059E000A0919602B09197028A019B010823192386
:1059F0002A233B23C901B8011F910F910C94D12C8C
:105A000020911B038095822380931B03982F97700E
:105A100041F430E0482F082E000C550B24173507B1
:105A200021F49091250292FF07C085958595859573
:105A30000E94DB2C0C94C52B08950F931F9341E01B
:105A400050E060E070E004C0440F551F661F771FF0
:105A50008A95D2F78091940290919502A091960236
:105A6000B09197028A019B01082B192B2A2B3B2B03
:105A7000C901B8011F910F910C94D12C909125026E
:105A800092FD10C098E0899F90011124262B20934D
:105A90001B030E941D2D0E94C72A90931A03809316
:105AA000190308950C941D2D609322037093230312
:105AB00080932403909325030C943C262091DB02D1
:105AC0009091AA0256E02917A9F030E0529FF00108
:105AD000539FF00D1124E555FD4F7181761306C0DB
