:100000000C94E4020C942B030C942B030C942B0300
:100010000C942B030C942B030C942B030C942B03A8
:100020000C942B030C942B030C9446160C94821501
:100030000C94040E0C942B030C942B030C942B03A4
:100040000C942B030C942B030C942B030C942B0378
:100050000C942B030C94D20D0C942B030C942B03B7
:100060000C942B030C942B030C942B030C942B0358
:100070000C942B030C942B030C942B030C942B0348
:100080000C942B030C942B030C942B030C942B0338
:100090000C942B030C942B030C942B030C942B0328
:1000A0000C942B030C942B030C942B03CA06CA0646
:1000B000040704075D0704090409040979075708C0
:1000C00068086808FB0BFD0B240C310C380C580C2D
:1000D000EA0CEA0CEA0CEA0CEA0C5B0C5D0C620C14
:1000E000850CA50CA80CAB0CCC0C7D0F7D0F900FD4
:1000F000900F860F900F900F900F7D0F7D0F8B0F3D
:10010000900F900F8B0F9613BD136415BD136415DC
:1001100009142C146415211531150000000000008D
:1001200000000000000000000000000000000000CF
:1001300000000000000000000000000000007E0F32
:1001400000D4FFFFFFC7000000780000000000009F
:1001500000002A2B28000000000000000000000022
:10016000000000000029000000002C1E3420212285
:1001700024342627252E362D3738271E1F202122EE
:10018000232425263333362E37381F040506070867
:10019000090A0B0C0D0E0F10111213141516171857
:1001A000191A1B1C1D2F3130232D35040506070895
:1001B000090A0B0C0D0E0F10111213141516171837
:1001C000191A1B1C1D2F3130354C05010980A10166
:1001D000850319012AB700150126B700950175108E
:1001E0008100C0050C0901A101850419012AA002A2
:1001F000150126A002950175108100C00660FF0957
:1002000061A1010962150026FF0095207508810291
:100210000963150026FF00952075089102C00501AD
:100220000906A101050719E029E715002501950830
:10023000750181029501750881010507190029FFE3
:10024000150026FF0095067508810005081901298B
:1002500005950575019102950175039101C009028B
:100260005B00030100A0FA09040000010301010082
:100270000921110100012240000705810308000A3D
:1002800009040100020300000009211101000122FC
:100290002200070582032000010705030320000157
:1002A00009040200010300000009211101000122DC
:1002B00032000705840320000A120110010000002B
:1002C000085C5236290100010200010E0341007250
:1002D00000630068006500720000001603410078AA
:1002E000006F006C00730074007500640069006F9B
:1002F000000000040309041E0000000000000000CC
:1003000000000000000000000000000000000000ED
:10031000000000000029001F00200021002200230F
:100320000024002500260027002D002E002A0000B2
:10033000004D002B0014001A000800150017001CC7
:100340000018000C00120013002F00300031004B89
:1003500000390004001600070009000A000B000D18
:10036000000E000F0033003400000028004E00E1B2
:10037000001D001B000600190005000500110010FB
:1003800000360037003800E50052000000E00000B1
:10039000000000E2002C0000002C00000000000122
:1003A0005100000000500051004F003A00000000D2
:1003B000000000000000000000000000000000003D
:1003C00000000000000000000035003B003C003D44
:1003D000003E003F00400041004200430044004511
:1003E000004C0000004A0001000100010001000172
:1003F00000010001000100010001000100010001F5
:1004000000010001000100010001000100010001E4
:1004100000010001000100010001000100000001D5
:1004200000010001000100010001000100010001C4
:1004300000010001000100010001000100010000B5
:1004400000010000000000010001000000010000A8
:100450000000000100000000000100010001000197
:10046000000000000000000000000000000000008C
:10047000000000000000000000000000000100017A
:100480000001000100010001000100010001000164
:100490000001000100010000000100010001000155
:1004A0000001000100010001000100010001000144
:1004B0000001000100010001000100010001000134
:1004C0000001000100010001000100010001000124
:1004D0000000000100010001000100010001000115
:1004E0000001000100010001000100010001000104
:1004F00000010000000100000000000100010000F8
:1005000000010000000000010000000000010001E7
:1005100000010001000000000000000000000000D9
:1005200000000000000000000000000000000000CB
:1005300000010001000100010001000100010001B3
:1005400000010001000100010001000000010001A4
:100550000001000100010001000100010001000193
:100560000001000100010001000100010001000183
:100570000001000100010001000100010001000173
:100580000001000100000001000100010001000164
:100590000001000100010001000100010001000153
:1005A0000001000100010000000100000000000146
:1005B0000001000000010000000000010000000038
:1005C000000100010001000011241FBECFEFDAE09E
:1005D000DEBFCDBF04B603FE27C080913C029091E0
:1005E0003D02A0913E02B0913F028730904BA74060
:1005F000B04BD1F410923C0210923D0210923E0298
:1006000010923F0214BE84B7877F84BF0FB6F89460
:10061000A8958091600088618093600010926000CE
:100620000FBEE0E0F8E3099511E0A0E0B1E0EAE0F8
:10063000FAE302C005900D92A036B107D9F722E087
:10064000A0E6B1E001C01D92AC33B207E1F70E9411
:10065000130A0C94031D0C9400003F924F925F927A
:100660006F927F928F929F92AF92BF92CF92DF92C2
:10067000EF92FF920F931F93CF93DF93CDB7DEB727
:1006800029970FB6F894DEBF0FBECDBFFC01808165
:10069000918123813481232B31F09F3F31F491E00C
:1006A0008F3F19F403C091E001C090E090FDE9C5CF
:1006B0007F0185E0DE01119601900D928A95E1F7A8
:1006C000F701228189819A81222349F00E941E0F1D
:1006D000182F682F89819A810E94C00F03C00E9441
:1006E000940F182F69817A81812F0E947C198C01C7
:1006F000F7018281882309F4F2C0980122513F4515
:100700002031310508F019C18FEF93E00E94B41C2D
:100710008111EFC0025137EF832E32E0932E002378
:1007200079F08114F4E09F0609F4E3C0C4010E944B
:10073000B41C811101C001501FEF811A910AEFCF43
:100740001E821F8218861986442443942AE0322E82
:1007500084010F5F1F4FC4010E94B41C8E831F824F
:10076000882309F4C6C09FEF980F933060F48F83FD
:100770004E8222E0820E911CC8010E94B41C888720
:10078000811102C0B6C048018E010A5F1F4FF801F7
:1007900020812223E9F2213009F04CC0818181308F
:1007A00049F46801F2E0CF0ED11CF80182810E9469
:1007B000961C0AC0823051F46801F2E0CF0ED11CC1
:1007C000F80182810E943D1C860186C0833049F475
:1007D0006801F2E0CF0ED11CF80182810E94051C55
:1007E000F3CF843019F00F5F1F4F76C0F8012281DC
:1007F0000E5F1F4F80E090E030E0205331092A3037
:10080000310568F4389EA001399E500D1124C901AC
:10081000840F951F0F5F1F4FF8012081EDCF0097C8
:1008200009F45AC0EFE9FFE03197F1F700C000008A
:100830000197F5CFE22FF0E0E65BFE4F5490822F58
:1008400086958695869590E0FC01E65CFE4F649067
:100850002770712C022E02C0759467940A94E2F7F7
:10086000F1E06F227724FC01E65DFE4FA490B12CED
:10087000022E02C0B594A7940A94E2F731E0A322B5
:10088000BB24FC01E65EFE4FC490D12C02C0D5947F
:10089000C7942A95E2F781E0C822DD24611471042F
:1008A00019F081EE0E943D1CA114B10419F086EEEE
:1008B0000E943D1C852D0E94961CAB2819F086EEE7
:1008C0000E94051C672819F081EE0E94051CCD28A6
:1008D00019F08CE20E94961C0F5F1F4F58CF003119
:1008E0003FE5130709F0C4C481E00E94F50F0E94A0
:1008F000921280910F02877009F4C3C4F7018281BC
:10090000882309F4BEC482E029960FB6F894DEBFAE
:100910000FBECDBFDF91CF911F910F91FF90EF9050
:10092000DF90CF90BF90AF909F908F907F906F900F
:100930005F904F903F900C941A100031FFE51F0715
:1009400011F481E005C001312FE5120721F482E0A6
:100950000E943710CCCF033FFCE51F0799F406E255
:1009600021EE40EE63EF7CE509C0073DECE51E0794
:1009700011F506E221EE41EE67ED7CE5C7010E942C
:100980009318B7CF043F2CE5120708F03FC1083D8C
:100990003CE5130731F407E225EE45EE68ED7CE512
:1009A000EDCF093D9CE5190701F708E221E045EE8E
:1009B00069ED7CE5E3CF882309F45DC11092620103
:1009C00002309CE5190708F440C10631ECE51E072A
:1009D00030F0C8018A5F9C45099708F036C10E9433
:1009E000470E90936501809364010031FCE51F0779
:1009F00009F4C3C008F041C008303CE5130709F40E
:100A00009AC0F0F404309CE5190709F487C068F433
:100A10000230FCE51F0709F477C003301C4509F0DC
:100A2000E5C080916401826076C006303CE5130722
:100A300009F46EC008F07BC08091640188606BC0CF
:100A40000C309CE5190709F485C068F40A30FCE510
:100A50001F0709F474C008F079C00E9487128091C2
:100A60006401806858C00E303CE5130709F476C075
:100A700008F07FC0809164018BC00B3F9CE5190793
:100A800009F44FC018F50331FCE51F0709F47DC0D8
:100A900078F401313CE5130709F473C002311C45B9
:100AA00009F0A4C00E948712809164018F7733C03F
:100AB00005319CE5190709F472C008F486C00A3FA5
:100AC0001C4509F093C0809165013EC00F3F2CE5A5
:100AD000120709F45FC058F40D3F8CE5180709F4BC
:100AE00044C008F43FC08091650182602DC0013090
:100AF000EDE51E0709F475C008F45DC002301D4520
:100B000009F074C060E06EC080916401816003C030
:100B10008091640180618093640168C08091640168
:100B200011C0809165018260809365015FC08091F2
:100B300064018062F0CF809164018064ECCF809189
:100B4000640188608460E7CF8160EECF80916401AA
:100B50008E7FE1CF809164018D7FDDCF8091640134
:100B6000877FD9CF8091650118C0809165018D7F05
:100B7000DBCF809164018F7ECECF809164018F7D29
:100B8000CACF809164018F7BC6CF80916401877F3B
:100B90008B7FC1CF809165018D7F8E7FC5CF809186
:100BA000640182FB222720F991E0922790FB82F9D1
:100BB00090FB83F9B0CF80916501982F909591704B
:100BC0008E7F892B90FB81F9AFCF0E948712809195
:100BD000640187FB222720F991E0922790FB87F997
:100BE0009ACF61E08EE090E00E94C21C60916401A7
:100BF0001091650184E090E00E94C21C612F82E2A6
:100C000090E00E94C21C0E94871273CE053FFCE553
:100C10001F0731F406E221EE42EE65EF7CE5AECE31
:100C2000053F2CE5120730F407E225EE44EE64EFB1
:100C30007CE5A4CE063F3CE5130709F0BCCE07E2F5
:100C400025EE46EE66EF7CE599CE06318CE5180779
:100C500051F5809112028A7A91E009F490E0909324
:100C60006301882311F065E301C069E283E991E043
:100C70000E942D0E15C006311C4509F045C080911B
:100C80006301882309F4FBC285E3E3E9F1E0928183
:100C9000891301C01282319631E0E939F307B9F7BF
:100CA0000E94C90E26CE0A358DE5180741F150F491
:100CB0000115ECE51E07A9F00E3D1C4529F50E9423
:100CC000580E17CE0B352DE51207D9F00C351D4502
:100CD000D9F48091650182FB882780F991E089270A
:100CE00011C00E9487128FEF94E3ECE08150904096
:100CF000E040E1F700C000000E94AE0DFACD81E0B7
:100D000001C080E00E94040FF701828100811181FF
:100D1000882349F0C8010E941E0FD82E682FC801F1
:100D20000E94C00F04C0C8010E94940FD82EB801C1
:100D30008D2D0E94741A8C01982EF701B280A58027
:100D4000A2949FE0A92280910F02877099F0BB20A6
:100D500089F0812F807F803421F080E2800F8830FD
:100D600048F082E00E941A1080910F028770DD2403
:100D7000D3948111D12CC12EC2948FE0C8228C2D26
:100D800090E08C30910508F03FC2FC01EA5AFF4F19
:100D90000C94F61C812F807F1F70882311F0129510
:100DA000107FBB20B9F0112309F419C280E2800F33
:100DB000883010F0911006C080911202182B109309
:100DC000120205C080911102182B109311020E948B
:100DD000C90E05C2802F0E94051C112309F414C2FC
:100DE000005E1095083010F0911006C0809112023C
:100DF00018231093120205C080911102182310933A
:100E000011020E94C90E00C2812F807F1F708032A4
:100E100011F01295107F992021F0F1E09F1611F149
:100E200030C0BB20B1F0AA2081F001E0A0120DC0BB
:100E30008091650182FDE8C180911302182B18177B
:100E400009F4E2C110931302DFC180911302812BD8
:100E500010C0AA2021F021E0A21609F4D5C10E94F9
:100E6000C30E27C0BB2041F035E03A1508F4CCC1D1
:100E7000812F0E94FB1BC8C184E08A1508F4C4C1FD
:100E800018C0BB2049F0AA2099F3F701858180FFA3
:100E9000A6C18F708583ECCFAA2059F0093309F0E1
:100EA000B0C1FFEF17EE23E0F15010402040E1F712
:100EB000A6C1812F0E94F01BA7C1812F8695869520
:100EC000837019F0813059F09FC1BB2019F0C8011F
:100ED000937002C080E090E00E9471189BC1BB201B
:100EE00019F0C801937002C080E090E00E945B1886
:100EF00091C1812F837009F069C0B11089C1902F11
:100F0000929596959770990F990F802F8F70882ED4
:100F1000912CA12CB12C092E04C0880C991CAA1C60
:100F2000BB1C0A94D2F704FF12C04FE050E060E00F
:100F300070E004C0440F551F661F771F9A95D2F7C3
:100F4000DB01CA0180959095A095B09503C080E023
:100F500090E0DC0116951695412F4370423019F14F
:100F6000C8F40091140210911502209116023091DC
:100F70001702413059F088299929AA29BB29BC01B7
:100F8000CD0160237123822393230AC0802A912AF2
:100F9000A22AB32ABC01CD01682979298A299B2973
:100FA0000E94581035C188299929AA29BB29009186
:100FB0001402109115022091160230911702BC0103
:100FC000CD016027712782279327EACFBB2019F034
:100FD000812F817001C08695882309F419C1902F53
:100FE000929596959770990F990F802F8F70882EF4
:100FF000912CA12CB12C092E04C0880C991CAA1C80
:10100000BB1C0A94D2F704FF12C04FE050E060E02E
:1010100070E004C0440F551F661F771F9A95D2F7E2
:10102000DB01CA0180959095A095B09503C080E042
:1010300090E0DC0116951695412F43704230D9F0AF
:1010400068F500912F021091300220913102309109
:101050003202413059F088299929AA29BB29BC01BB
:10106000CD0160237123822393231EC0802A912AFD
:10107000A22AB32A13C088299929AA29BB29009139
:101080002F02109130022091310230913202BC01C6
:10109000CD01602771278227932706C0BC01CD01AF
:1010A000682979298A299B290E94EB0FB1C01F70FA
:1010B000BB2039F0812F0E943710802F0E94FB1B2C
:1010C000A7C0802F0E94F01B812F0E94F50FA0C0A7
:1010D000802F32EF931609F440C0391538F090EFA5
:1010E000991661F0E1EF9E1699F174C0F3EF9F1627
:1010F000D9F124EF921609F44EC06CC0BB2019F14F
:1011000034E03A1508F480C01F7181E090E0A0E05F
:10111000B0E0AC01BD0104C0440F551F661F771F2E
:101120001A95D2F780912F0290913002A09131024E
:10113000B09132028A019B01082719272A273B27F1
:10114000C901B80125C025E02A1508F45DC0DCCF2F
:10115000BB2029F0812F8F7130C0BB20D9F3812FA4
:101160008F710E94F50F50C0BB2079F01F7181E094
:1011700090E0A0E0B0E0BC01CD0104C0660F771F95
:10118000881F991F1A95D2F703C060E070E0CB0169
:101190000E94EB0F39C0BB2099F01F71812F0E9474
:1011A00037108091650182FD07C038E0139FC001B0
:1011B0001124836080930F02812F0E94371024C076
:1011C00081E00E941A1081E08A15F0F482E00E940A
:1011D0001A101AC0BB2039F0AA2009F4BBCF802F07
:1011E0000E943D1C11C0AA2009F4B9CF893349F4EB
:1011F0009FEFE7EEF3E09150E040F040E1F700C0F0
:101200000000802F0E94051C88EF8C0D843010F4A4
:101210000E948718DD20A9F180910F0280FD31C066
:10122000F70112828595859585950E943710C70133
:101230000E942D0380910F028595859585952996AD
:101240000FB6F894DEBF0FBECDBFDF91CF911F91D7
:101250000F91FF90EF90DF90CF90BF90AF909F9055
:101260008F907F906F905F904F903F900C94F50F10
:1012700001319FE5190709F06ECB82E036CB89E298
:1012800004CD29960FB6F894DEBF0FBECDBFDF9117
:10129000CF911F910F91FF90EF90DF90CF90BF9073
:1012A000AF909F908F907F906F905F904F903F9006
:1012B0000895BC0184E00C947C0DBC0183E00C9487
:1012C0007C0D8091270287FF11C08091E80082FD8C
:1012D00005C0809125028111F8CF11C08091E800EE
:1012E0008B770BC080912502882349F08091E8001C
:1012F00080FFF8CF8091E8008E778093E800089512
:10130000982F973068F59093E900981739F070910D
:10131000EC002091ED005091F00003C0242F762FB7
:1013200050E021FD02C09F5FECCF3091EB003E7F8B
:101330003093EB003091ED003D7F3093ED00309124
:10134000EB0031603093EB007093EC002093ED00E4
:101350005093F0002091EE0027FDE5CF80E0089546
:101360008F708093E90081E0089520912D023091E3
:101370002E022617370748F06115710539F42091C0
:10138000E8002E772093E80001C0B901FC0120E0BD
:101390006115710579F1809125028823F1F185307D
:1013A000F1F18091E80083FD3CC08091E80082FD6E
:1013B0002EC08091E80080FFEBCF2091F300809158
:1013C000F20090E0922B6115710551F08830910583
:1013D00038F421912093F100615071090196F3CF07
:1013E00021E0089709F020E08091E8008E77809353
:1013F000E800CECF2111CFCF0AC0809125028823EB
:1014000061F0853061F08091E80083FD0AC0809131
:10141000E80082FFF2CF80E0089582E0089583E043
:10142000089581E00895CF93DF93CDB7DEB7AA97F3
:101430000FB6F894DEBF0FBECDBF84B7877F84BFE1
:101440000FB6F894A8958091600088618093600041
:10145000109260000FBE90E080E80FB6F894809381
:101460006100909361000FBE85B7806885BF85B726
:10147000806885BF8EE49DE0909361018093600158
:101480000E94C6150E94E5158091E2008460809359
:10149000E2007894809125028823A1F01091E90060
:1014A0001F709091EC00892F817090FD80E8182BBF
:1014B0001092E9008091E80083FD0E94B0121F7035
:1014C0001093E90082E084BD93E095BD9AEF97BD4B
:1014D00080936E000BE011E0F80181918F010E9472
:1014E0008919F1E001311F07B9F701E111E0F801B5
:1014F00081918F010E948919F1E000321F07B9F72D
:10150000E6E6F1E0A3E8B1E0119211921D921D927E
:1015100021E0E237F207C1F780E090E00E94BC1CB6
:101520008A3E9E4F11F00E94580E82E090E00E9489
:10153000B41C809376010E94470E909365018093BE
:1015400064010E94A0198FE39CE90197F1F700C0A4
:1015500000000E94A0198091830180FF17C06FEFE7
:1015600083E290E00E94C21C6FEF84E290E00E9450
:10157000C21C6FEF85E290E00E94C21C6FEF7FEF0C
:1015800080E090E00E94E01C0E94AE0D83E090E0BD
:101590000E94B41C682F70E080E090E00E94581018
:1015A00083E290E00E94B41C813281F484E290E0F6
:1015B0000E94B41C873051F485E290E00E94B41C74
:1015C00091E0893209F090E0892F01C080E080FF2E
:1015D00048C280E091E0909373018093720158E1DA
:1015E000652E712C60E4262E70E1372EE2E14E2E3E
:1015F000F0E15F2EFE0131967F016E01FDE0CF0E1E
:10160000D11C80912502853009F040C080912502CF
:10161000853009F037C080912502843009F110929D
:1016200074010FB6F894A895609260000FBE2092E6
:10163000600083B7817F846083BF83B7816083BF8D
:101640007894889583B78E7F83BF0FB6F894A8955A
:1016500080916000886180936000109260000FBEEE
:1016600080912402882391F20E94A019E3E8F1E01E
:1016700081919191892B09F0D5C121E0EF38F207D2
:10168000B9F7C4CF0E9487120E9487180E94A01940
:10169000882359F08FB7F89440918F0150919001B1
:1016A00060919101709192018FBFA7E7B1E0E3E8EB
:1016B000F1E000E010E0702F219131918D919D912A
:1016C00082279327009779F160E0AA24A394B12C94
:1016D000A50148235923452B09F169A37AA32A219F
:1016E0003B2181E0232B09F480E08BA30E94F80DBD
:1016F0008160782F9DA38CA349A15AA16BA18DA1D4
:101700000E94BD17000F111FF801E958FE4F80819C
:101710009181A826B926B182A0821AC06F5FAA0C57
:10172000BB1C6F30A9F60F5F1F4F0630110519F66D
:101730008FEF8EA38FA318A60E94F80D8160782FDB
:101740009AA789A74EA15FA168A58AA50E94BD1787
:101750000E94871890917501891721F00E948718BF
:101760008093750180912502843009F04ACF83E08F
:101770008093E9008091E80082FF43CF8091E800E8
:1017800085FF23C00E941B1781111DC080E2A82E77
:10179000B12C8E010F5F1F4F09C08091F100F8013D
:1017A00081938F01F1E0AF1AB10869F08091E800F0
:1017B00085FDF3CF8091E8008B778093E8000E944D
:1017C0001B17882399F391E001C090E08091E80015
:1017D0008B778093E800992309F413CFE9818E2F4A
:1017E00090E0FC013197E331F10508F0F3C0EE59C8
:1017F000FF4F0C94F61C1A8262C08A81823009F471
:1018000027C1833089F0813009F0E4C02FB7F89404
:1018100080918F0190919001A0919101B0919201DE
:101820002FBFBB83AC8322C0FE013196A3E8B1E099
:101830008C9111969C911197129692838383329684
:10184000CE16DF06A9F7C8C08A81823009F0C2C06F
:101850006B817C818D819E810E94FC1C86E290E0E0
:1018600024C04C816B818A810E9456199D83F7C0E8
:101870000D811E811027012710278C81AB809A8152
:101880002EE1A29E50011124E4EB9E9FA00CB11CFE
:101890001124A80EB11CA80EB11C612FC50187969A
:1018A0000E94C21C602FC50188960E94C21C94C071
:1018B0000E94221991C05A828FC081E08A8389E0F8
:1018C0008B838AC00A811B811027012710278C80F7
:1018D000912C5701C80189509D4F95012E193F0940
:1018E0002815390508F078C00930F1E01F0728F401
:1018F0000E94B41CF501848302C0F50114820F5FBD
:101900001F4FFFEFAF1ABF0AE5CF0A811B811027D7
:10191000012710278C80912C5701C80189509D4FB9
:1019200095012E193F092815390508F055C00930D1
:1019300021E0120720F4F50164810E94C21C0F5FB0
:101940001F4FFFEFAF1ABF0AE8CF0E94121944C021
:1019500084E08A8341C00A811B8110270127102758
:101960008C80912C5701C801879695012E193F094B
:101970002815390588F5003D22E0120728F40E9459
:10198000B41CF501848302C0F50114820F5F1F4F60
:10199000FFEFAF1ABF0AE7CF0A811B81102701278B
:1019A00010278C80912C5701C801879695012E191C
:1019B0003F092815390580F4003D22E0120720F484
:1019C000F50164810E94C21C0F5F1F4FFFEFAF1A29
:1019D000BF0AEACF8FEF898380912502843009F016
:1019E00010CE1091E9001F709091EC00892F81704A
:1019F00090FD80E8182B82E08093E9008091E80058
:101A000080FF0CC040E050E060E270E0C7010E943F
:101A10004E178091E8008E778093E8001F70109336
:101A2000E900EFCD39BC49BC09B400FEFDCF80917F
:101A3000D8008F7D8093D8008091E00082608093F1
:101A4000E0008091E00081FDFCCF0E948712DECD96
:101A500086E290E00E94B41C1B821C821D828E8351
:101A6000BBCF60E086E290E00E94C21C0E94221977
:101A70000E94121961E283E290E00E94C21C67E0BA
:101A800084E290E00E94C21C69E285E290E00E943C
:101A9000C21C9FCD089580911A02089580E0089598
:101AA000CF93DF9321E02093E9002FEF3091E800FE
:101AB000215035FD06C035ED3A95F1F700002111B2
:101AC000F5CF2091E80025FF14C0EC0140E050E084
:101AD00068E070E00E944E178091E8008E77809356
:101AE000E80088E0FE01ABE1B2E001900D928A953A
:101AF000E1F7DF91CF910895CF93DF9300D01F924C
:101B0000CDB7DEB790912502943011F589837B83A0
:101B10006A839093E9008FEF9091E800815095FDE2
:101B200006C095ED9A95F1F700008111F5CF8091EF
:101B3000E80085FF0DC040E050E063E070E0CE01BA
:101B400001960E944E178091E8008E778093E800FE
:101B50000F900F900F90DF91CF91089581E08093C7
:101B6000E00080E28093D8001092C9008FE19EE4EB
:101B70000197F1F700C0000087E090EBDC01809353
:101B80003C0290933D02A0933E02B0933F029CE042
:101B900088E10FB6F894A895809360000FBE9093EB
:101BA0006000FFCF78941F920F920FB60F9211240E
:101BB0008F939F93AF93BF9380918F0190919001EA
:101BC000A0919101B09192010196A11DB11D809348
:101BD0008F0190939001A0939101B0939201BF91D6
:101BE000AF919F918F910F900FBE0F901F901895FE
:101BF0002FB7F89480918F0190919001A09191015D
:101C0000B09192012FBF08951F920F920FB60F92BD
:101C100011248F939F93AF93BF938091740181118F
:101C200013C080918F0190919001A0919101B0918A
:101C300092014196A11DB11D80938F019093900157
:101C4000A0939101B0939201BF91AF919F918F9119
:101C50000F900FBE0F901F9018959C01FC013296BB
:101C60009FEF80E04191461789F09F3F19F44111A1
:101C700001C0982F8F5F8630A9F79F3F39F0F90197
:101C8000E90FF11D97FDFA95628308950895CF93AA
:101C900084E090E00E94B41CC82F82E290E00E9491
:101CA000B41C2C2F30E0A901582BCA01CF91089504
:101CB0006AEE7EEF80E090E00E94E01C60E082E04F
:101CC00090E00E94C21C60E083E090E00E94C21C91
:101CD000109214021092150210921602109217021E
:101CE00060E084E090E00E94C21C60E082E290E04C
:101CF0000E94C21C60E085E090E00E94C21C60E08F
:101D000086E090E00E94C21C6FEF87E090E00E94A6
:101D1000C21C40E050E0BA0188E090E00E94D41C70
:101D200060E08DE090E00E94C21C40E050E0BA010B
:101D300088E190E00E94D41C60E087E190E00E947E
:101D4000C21C40E050E0BA018CE190E00E94D41C3B
:101D500060E070E080E290E00E94E01C40E050E033
:101D6000BA0188E190E00E94D41C40E050E0BA0142
:101D70008FE090E00E94D41C40E050E0BA0183E183
:101D800090E00C94D41C80911302811110921302E4
:101D900008959091120280911102892B20911002D6
:101DA000982F922B9093930180911302882389F0AE
:101DB000892B80939301E5E9F1E097E080E0915071
:101DC00029F021912223D9F38F5FF9CF81110E944D
:101DD000C30EE0917201F0917301309731F00280EF
:101DE000F381E02D83E991E00994089580E090E08B
:101DF0000E94711880E090E00E945B18109211021E
:101E0000109210020C94C90ECF93C0916501C2FBD1
:101E1000992790F9981781F080FBC2F9C09365016A
:101E20006091640184E090E00E94C21C6C2F82E209
:101E300090E0CF910C94C21CCF910895BF92CF92A5
:101E4000DF92EF92FF920F931F93CF93DF938C015A
:101E5000C0902F02D0903002E0903102F090320218
:101E60008091140290911502A0911602B091170270
:101E7000C82AD92AEA2AFB2ACFE1D0E0D701C60135
:101E80000C2E04C0B695A795979587950A94D2F71E
:101E900080FD04C0219790F7B12C07C0BC2EB8017B
:101EA0008C2F0E94741A0197A9F38B2DDF91CF918B
:101EB0001F910F91FF90EF90DF90CF90BF9008950A
:101EC000CF93DF93EC010E941E0FBE010E94741A93
:101ED000DF91CF9108950E94600F292F2F70E92F75
:101EE000E295EF704E2F50E0FA013297EE30F10597
:101EF000B8F4EB58FF4F0C94F61C803F99F018F49F
:101F0000883E70F40FC0843F59F40CC0883E50F0F6
:101F1000813F31F407C0822F869586958695089576
:101F200080E0089581E008952FE0929F800D1124B4
:101F3000682F669566956695982F977085E0689FDF
:101F4000B001112440E050E080E0FB01E40FF51FF8
:101F5000ED52FE4F208130E0092E02C036952795C4
:101F60000A94E2F721703327042E01C0220F0A944D
:101F7000EAF7822B4F5F5F4F4530510531F70895E7
:101F80002FE0929F800D1124E82FE695E695E695C7
:101F9000877051E001C0550F8A95EAF785E0E89F08
:101FA000F0011124ED52FE4F20E030E070E040815E
:101FB000CB01022E02C0969587950A94E2F78170B4
:101FC000819584278523842781932F5F3F4F253078
:101FD000310569F7089560932F0270933002809362
:101FE0003102909332020C94F60E0F931F9341E04E
:101FF00050E060E070E004C0440F551F661F771F7B
:102000008A95D2F7409550956095709580912F02F2
:1020100090913002A0913102B09132028A019B016D
:10202000082319232A233B23C901B8011F910F91CB
:102030000C94EB0F20910F028095822380930F0266
:10204000982F977041F430E0482F082E000C550B64
:102050002417350721F49091650192FF07C08595FB
:10206000859585950E94F50F10920F0208950F93A4
:102070001F9341E050E060E070E004C0440F551F42
:10208000661F771F8A95D2F780912F0290913002B8
:10209000A0913102B09132028A019B01082B192BC9
:1020A0002A2B3B2BC901B8011F910F910C94EB0F08
:1020B0006093140270931502809316029093170296
:1020C0000C94F60E8091D2019091A101891719F01C
:1020D0008F5F8770FBCF08950F931F93CF93DF938C
:1020E0008091A00182958F7009F05DC080919D0163
:1020F000882309F458C08091D2011091A101609108
:102100009B0170919C01C0919E01D0919F0191E033
:102110006F3F09F090E0292F06E0811709F443C0D2
:10212000209721F07F3F21F030E003C031E001C073
:10213000322F90E030FD34C0089FF001099FF00D70
:102140001124DF01AE55BE4F11963C911197371304
:1021500027C03C91361324C012963C91129731113E
:102160001FC013964D915C9114974C1B5D0B483C1E
:102170005105B0F48091A0018F7080618093A0011F
:10218000E955FE4F80818F70806180838BE991E0FB
:102190000E942D03DF91CF911F910F910C9462103B
:1021A00001968770BACFDF91CF911F910F9108955B
:1021B0009F92AF92BF92CF92DF92EF92FF920F93D6
:1021C0001F93CF93DF93CDB7DEB761970FB6F89427
:1021D000DEBF0FBECDBF8C0185E0F801DE011D968C
:1021E00001900D928A95E1F7F80190818181E2805A
:1021F00030919B0160919C0140919E0150919F0103
:102200004115510531F06F3F31F421E03F3F19F4A2
:1022100003C021E001C020E0F22FF1709F2E20FDCD
:1022200023C1F801C380D4802BE9A22E21E0B22E75
:10223000F0909D01F601E41BF50BFF2009F4CEC0E0
:102240002091A001E83CF10508F099C0422F407FA1
:1022500009F051C0681311C039130FC0FE2CE110F2
:102260000CC02F7020612093A001C5010E942D0396
:102270008091A001F801858337C1CD2831F08F3FCF
:1022800031F421E09F3F19F403C021E001C020E0B8
:1022900020FD03C021E02E2502C020E030E0F22F17
:1022A000F170FF2E20FF1DC02091D2014091A101AD
:1022B00056E0241709F4F6C030E0529FF001539F16
:1022C000F00D1124EE55FE4F6181861306C060812A
:1022D000961303C06281E61204C02F5F3F4F277040
:1022E000E8CFFE2CEE2009F4FFC08091A0018160B0
:1022F0008093A00150C0681307C0391305C0E110D6
:1023000003C0F80125838DC09D878E878D859E85AE
:102310000E946B0F882369F1EE2059F12091A001F2
:10232000822F82958F7090E0029774F080919B01CC
:1023300090919C0198878F831986DB86CA862C87AB
:10234000CE0107960E942D0386E0F801ABE9B1E0CB
:1023500001900D928A95E1F70E946C100DC06817EC
:10236000E1F09D878E878D859E850E946B0F811180
:102370001EC0C8010E942D03FF24F394B5C0422F54
:10238000407F69F78BE991E00E942D0386E0F5011B
:1023900011928A95E9F7F12CA7C03913E2CFE11029
:1023A000E0CFF8012583C8010E942D0357C0EE201D
:1023B00001F32091A001822F82958F7090E0029707
:1023C0001CF280919B0190919C019A8389831B82CE
:1023D000DD82CC822E83CE010196B4CFE83CF1059C
:1023E000E8F5FE2CEE2029F2681327C0391325C02A
:1023F0002091A00120FD18C0822F82958F70482F58
:1024000050E04115510581F0F80125834F30510509
:1024100041F08F5F982F9295907F822F8F70892B3C
:102420008583C8010E942D0386E0F801ABE9B1E085
:1024300001900D928A95E1F757C09D878E878D8513
:102440009E850E946B0F81117FCF8091A0018160DA
:102450008093A001C8010E942D0346C086E0F501CB
:1024600011928A95E9F740C0EE2009F482CF9D874A
:102470008E878D859E850E946B0FF82E882309F428
:1024800078CF86E0F801ABE9B1E001900D928A9532
:10249000E1F780919B0190919C010E94600F0E9446
:1024A0006C1022C09D878E878D859E850E94600F4F
:1024B000292F22952F70223028F49F7039F0811136
:1024C00005C00BC0243028F49F7049F4805E88302A
:1024D00020F0C8010E942D039F2CF92C05C0F801A3
:1024E0009581907F99F7F9CF8F2D61960FB6F8946B
:1024F000DEBF0FBECDBFDF91CF911F910F91FF9037
:10250000EF90DF90CF90BF90AF909F900895109282
:10251000120286E0E5E9F1E0DF011D928A95E9F714
:102520000C94F60E0F931F9380912F02909130021E
:10253000A0913102B09132028C019D0106701127E9
:1025400022273327BC01CD010630110521053105B5
:1025500011F4686001C0677F1F910F910C94EB0F1D
:102560001F93CF93DF93CDB7DEB7AA970FB6F8943A
:10257000DEBF0FBECDBFE7E2F2E08091F1008193B4
:1025800042E0EF32F407C9F780912802833009F462
:1025900062C030F4813071F0823009F49CC0B3C065
:1025A0008A3009F488C08B3009F46DC0893009F095
:1025B000AAC020C080912702813A09F0A4C080916E
:1025C000E800877F8093E80080912B0290912C0295
:1025D000892B21F468E08BE192E003C060E080E0A9
:1025E00090E070E00E94B5098091E8008B778093BD
:1025F000E80089C080912702813209F084C080916F
:102600002B0290912C02009719F0029709F07BC0E1
:102610008091E800877F8093E8008091E80082FD48
:1026200005C0809125028111F8CF6DC02091F30083
:102630008091F20090E0922B029729F48091F100B2
:102640008B7F813021F48091F10080931A02809178
:10265000E8008B7754C080912702813A09F053C07B
:1026600080912B0290912C02892B09F04CC0809113
:10267000E800877F8093E8008091E80080FFFCCF2E
:1026800080910A0137C0809127028132E1F5809163
:102690002B0290912C02892BB1F58091E800877F65
:1026A0008093E8000E9461098091290280930A01C9
:1026B0000E94871228C080912702813221F58091E3
:1026C000E800877F8093E8000E94610980912A02D8
:1026D0008093190218C080912702813AA1F4809159
:1026E000E800877F8093E8008091E80080FFFCCFBE
:1026F000809119028093F1008091E8008E77809399
:10270000E8000E9461098091E80083FFDDC18091AB
:10271000270290912802492F50E04A30510508F0D5
:10272000D3C1FA01ED57FF4F0C94F61C803821F00D
:10273000823809F0C9C108C0809123029091240217
:10274000992389F082600FC080912B028F708730AF
:1027500008F0BAC18093E9008091EB0085FB8827DF
:1027600080F91092E9009091E800977F9093E8003B
:102770008093F1001092F10070C1282F2D7F09F095
:10278000A3C1882319F0823061F09EC18091290293
:10279000813009F099C1933009F080E080932402E0
:1027A0002EC08091290281112AC080912B028F7046
:1027B0002FEF280F263008F087C18093E900209181
:1027C000EB0020FF1CC0933021F48091EB0080626D
:1027D00014C09091EB0090619093EB0021E030E009
:1027E000A90102C0440F551F8A95E2F74093EA0001
:1027F0001092EA008091EB0088608093EB001092C9
:10280000E9008091E800877F8093E8000E946109D9
:102810005BC1811159C1109129021F778091E3009A
:102820008078812B8093E3008091E800877F8093FC
:10283000E8000E9461098091E80080FFFCCF809150
:10284000E30080688093E300111102C082E001C0C0
:1028500083E08093250238C18058823008F034C16B
:102860002091290230912A022C3D53E0350779F559
:1028700083E08A838AE289834FB7F894DE01139656
:1028800020E03EE051E2E32FF0E050935700E49166
:1028900020FF03C0E295EF703F5FEF708E2F90E056
:1028A000EA3010F0C79601C0C0968D939D932F5FBC
:1028B000243149F74FBF8091E800877F8093E8007B
:1028C0006AE270E0CE0101960E94B509B4C0809121
:1028D0002B0290912C02432F552743305105A9F02C
:1028E00068F44130510509F4FEC04230510509F049
:1028F000EBC08BE590E0EEE5F2E04BC041325105D4
:1029000029F14232510589F1DFC0C901992781308F
:102910009105A1F058F0029709F0D6C0EBECF2E077
:10292000E4918E2F90E0EBECF2E030C0E3EFF2E0C8
:10293000E4918E2F90E0E3EFF2E028C0EBEDF2E0BF
:10294000E4918E2F90E0EBEDF2E020C08330910512
:1029500008F0BAC0880F991FFC01E75DFE4F019097
:10296000F081E02D89E090E014C08330910508F0FB
:10297000ABC0FC01EE0FFF1FED5DFE4F0190F0813B
:10298000E02DDC01A05EBE4F8C9190E0009709F431
:102990009BC02091E800277F2093E80020912D0222
:1029A00030912E022817390708F4C90140E000973A
:1029B00089F120912502222309F43DC02530D9F167
:1029C0002091E80023FD37C02091E80022FD2FC0B0
:1029D0002091E80020FFEBCF4091F3002091F2001E
:1029E00030E0342B009759F02830310540F4449101
:1029F0004093F100319601972F5F3F4FF3CF41E0B5
:102A00002830310509F040E02091E8002E7720932E
:102A1000E800CDCF4111CDCF0AC080912502882397
:102A200051F0853041F08091E80083FD04C0809131
:102A3000E80082FFF2CF8091E8008B778093E80076
:102A400043C0803809F040C08091E800877F8093C0
:102A5000E800809126028093F1008091E8008E7753
:102A6000D3CE811131C08091290290912A029927F9
:102A7000029754F58091E800877F8093E8001091D9
:102A80002902109326020E946109111106C080914B
:102A9000E30087FD02C081E001C084E0809325024D
:102AA00042E061EC81E00E94800942E261EC84E056
:102AB0000E94800942E261EC82E00E94800942E2C9
:102AC00060EC83E00E9480098091E80083FF10C0E1
:102AD0008091E800877F8093E8008091EB0080621E
:102AE0008093EB0005C082E190E0E9EBF2E051CF8A
:102AF000AA960FB6F894DEBF0FBECDBFDF91CF917F
:102B00001F9108951F920F920FB60F9211242F93C9
:102B10003F934F935F936F937F938F939F93AF9365
:102B2000BF93CF93DF93EF93FF93C091E900CF70F2
:102B30008091EC00D82FD17080FDD0E81092E90090
:102B40008091F000877F8093F00078940E94B0120B
:102B50001092E9008091F00088608093F000CD2B06
:102B6000CF70C093E900FF91EF91DF91CF91BF91BA
:102B7000AF919F918F917F916F915F914F913F9115
:102B80002F910F900FBE0F901F901895E8EDF0E079
:102B900080818E7F80831092E2001092DA00109282
:102BA000E100A0EEB0E08C9181608C9380818F7702
:102BB000808319BCA7EDB0E08C918E7F8C938081CF
:102BC0008F7E8083109218020895CF92DF92EF9249
:102BD000FF920F931F93CF93DF93C8EDD0E08881CE
:102BE0008F7E8883E7EDF0E080818160808384E0E0
:102BF00082BF81E08093180288818E7F888302EEF5
:102C000010E0F80110821092DA0081EEC82ED12C6B
:102C1000F601108288818F77888388818068888315
:102C200088818F7D888319BC10922502109226021C
:102C3000109224021092230290EEE92EF12CF7015B
:102C400080818B7F808388818160888342E060E01F
:102C500080E00E948009F60180818E7F8083F801E8
:102C6000808181608083808188608083F70180819A
:102C70008E7F8083888180618883DF91CF911F91CF
:102C80000F91FF90EF90DF90CF9008951F920F92D9
:102C90000FB60F9211242F933F934F935F936F932F
:102CA0007F938F939F93AF93BF93EF93FF93809105
:102CB000E10082FF09C08091E20082FF05C080919F
:102CC000E1008B7F8093E1008091DA0080FF2AC0D1
:102CD0008091D80080FF26C08091DA008E7F80939B
:102CE000DA008091D90080FF18C080E189BD82E1BF
:102CF00089BD09B400FEFDCF81E08093250280915B
:102D0000180281110FC00E94C6150E94E51580911E
:102D1000E20084608093E20005C019BC1092250295
:102D2000109218028091E10080FF17C08091E200AC
:102D300080FF13C08091E2008E7F8093E20080913B
:102D4000E20080618093E2008091D80080628093ED
:102D5000D80019BC85E0809325028091E10084FFB2
:102D60002EC08091E20084FF2AC080E189BD82E10B
:102D700089BD09B400FEFDCF8091D8008F7D80937E
:102D8000D8008091E1008F7E8093E1008091E20085
:102D90008F7E8093E2008091E20081608093E20068
:102DA00080912602882311F084E007C08091E3001F
:102DB00087FD02C081E001C083E0809325028091FD
:102DC000E10083FF27C08091E20083FF23C0809150
:102DD000E100877F8093E10082E0809325021092DA
:102DE00026028091E1008E7F8093E1008091E200D5
:102DF0008E7F8093E2008091E20080618093E20008
:102E000042E060E080E00E9480098091F0008860EC
:102E10008093F000FF91EF91BF91AF919F918F91BF
:102E20007F916F915F914F913F912F910F900FBEC6
:102E30000F901F9018952091E4003091E50095E6E1
:102E40004091EC00842F817040FF23C08091E80006
:102E500080FD1DC080912502882399F0853099F06E
:102E60008091EB0085FD11C04091E4005091E50098
:102E70002417350729F3915011F09A01E1CF84E02E
:102E8000089582E0089583E0089581E0089580E048
:102E900008954091E80042FFDDCF0895EF92FF9240
:102EA0000F931F93CF93DF937C018B010E941B171D
:102EB000811119C0E70101151105A1F08091E80009
:102EC00085FD0AC08091E8008E778093E8000E941B
:102ED0001B17882381F307C089918093F10001506B
:102EE0001109E9CF80E0DF91CF911F910F91FF9001
:102EF000EF9008959091640192FF0DC0282F2871E2
:102F0000283019F4877F846006C0282F247124306C
:102F100011F48B7F886093FF0DC0282F2871283112
:102F200019F4877E846106C0282F2471243111F49E
:102F30008B7E88612091650120FF0DC0382F38718C
:102F4000383019F4877F816006C0382F31713130F5
:102F500011F48E7F886021FF0DC0282F2871283141
:102F600019F4877E816106C0282F2171213111F467
:102F70008E7E886194FD877E08951F93CF93DF93A3
:102F8000CDB7DEB767970FB6F894DEBF0FBECDBFE3
:102F9000342F4B8B252F5C8B6D8B7E8B8F8B4E89CB
:102FA0005F8961111092110286E0FE013D96DF01FA
:102FB000982F1D929A95E9F73D872E876F87598B39
:102FC000488BDE01179601900D928A95E1F7CE01AC
:102FD00007960E94D81081113EC086E0FE01379608
:102FE000DE01119601900D928A95E1F7FF81E88547
:102FF0006A857B856115710531F0EF3F31F481E021
:10300000FF3F19F403C081E001C080E080FD23C0D0
:103010002091A10130E0C901019687709927409164
:10302000D20150E08417950779F1F983EA837D8313
:103030006C8396E0929FD001939FB00D1124AE5502
:10304000BE4FFE01319601900D929A95E1F7809363
:10305000A1010E94621016E08091D2019091A1011D
:103060008917F9F0189FC00111248E559E4F0E94B8
:10307000D8108823B1F08091D20190E0019687703A
:1030800099278093D201E8CF0E9487121092A10164
:103090001092D201EBE9F1E086E0DF011D928A9502
:1030A000E9F767960FB6F894DEBF0FBECDBFDF918C
:1030B000CF911F91089520913A0230913B02281739
:1030C000390771F090933B0280933A02E0917201CC
:1030D000F0917301309721F00084F185E02D09947F
:1030E000089520913802309139022817390771F07C
:1030F0009093390280933802E0917201F09173014C
:10310000309721F00680F781E02D09940895E09131
:103110007201F0917301309721F00190F081E02D60
:10312000099480E008950F931F93CF93DF93C42FEA
:10313000122FFC0182818823C9F0409362010E9412
:10314000F80D909337028093360280E28C0F88301E
:1031500008F063C0C77081E001C0880FCA95EAF724
:10316000DF91CF911F910F910C94FB1B8091620115
:1031700048133CC020913602309137024FB7F89483
:1031800080918F0190919001A0919101B091920155
:103190004FBF821B930B883C910540F5D0E2D10FC5
:1031A000C117B9F080E28C0F883040F4C77081E01D
:1031B00001C0880FCA95EAF70E94F01BD83030F59D
:1031C00081E0912F977001C0880F9A95EAF70E94CD
:1031D000FB1B802F0E94961CD830F8F4212F2770FB
:1031E00081E001C0880F2A95EAF70AC080E28C0FBF
:1031F000883098F4C77081E001C0880FCA95EAF75B
:10320000DF91CF911F910F910C94F01B802FDF91D4
:10321000CF911F910F910C94961CDF91CF911F912C
:103220000F910895CF93DF93C7EFD2E060E0CE0116
:103230000E94C21C2196C11584E0D807B9F7DF911E
:10324000CF910895CF92DF92EF92FF920F931F9349
:10325000CF93DF93C0E0D0E08E010C541F4F6E017E
:103260008EE1C80ED11CFE01E950FD4FE590F490AF
:103270006F2DCE0187960E94C21C6E2DCE018896BE
:103280000E94C21C2296CC15DD0569F70C171D079C
:1032900031F7E801003D1240F9F6DF91CF911F911F
:1032A0000F91FF90EF90DF90CF9008950F931F93B1
:1032B000CF93DF93C42FD0E0CC0FDD1F2EE1629FB0
:1032C000C00DD11D112434EB839FC00DD11D1124DD
:1032D000CE0187960E94B41C082F10E0102F002703
:1032E000CE0188960E94B41C9801282BC901DF9159
:1032F000CF911F910F910895462F843038F4763086
:1033000028F46F3018F4672F0C94561980E090E081
:103310000895F894E82FE295EF70F0E031A1282F9E
:103320002F7081E090E001C0880F2A95EAF7982F6E
:103330009095932391A392A1892B82A378940895C9
:103340009F92AF92BF92CF92DF92EF92FF920F9334
:103350001F93CF93DF930BE011E0C6E6D1E082E745
:10336000E82E81E0F82E912CCC24C394D12CB80106
:10337000D8018C91F894E82FE295EF70F0E021A14C
:103380008F70A60102C0440F551F8A95E2F7CA014B
:10339000922F982B91A392A18095892382A3789450
:1033A00000C0E1E1F1E020E030E0A12CB12C41913E
:1033B000842F82958F7090E0DC0190968C9190E044
:1033C0004F7002C0959587954A95E2F780FD08C039
:1033D000C601022E02C0880F991F0A94E2F702C0AC
:1033E00080E090E0A82AB92A2F5F3F4F2F303105A7
:1033F000F1F60F5F1F4FFB0180810E948919F0EAEF
:10340000FA95F1F788819981A816B90621F0B98259
:10341000A88281E001C080E0982A2296EC16FD0681
:1034200009F0A5CF992049F081E0809335020E94F0
:10343000F80D9093340280933302809135028823F3
:1034400009F445C020913302309134024FB7F8940B
:1034500080918F0190919001A0919101B091920182
:103460004FBF821B930B069790F18091660190915C
:10347000670190938401809383018091680190910A
:103480006901909386018093850180916A019091F2
:103490006B01909388018093870180916C019091DA
:1034A0006D0190938A018093890180916E019091C2
:1034B0006F0190938C0180938B01809170019091AA
:1034C000710190938E0180938D0110923502892DA8
:1034D000DF91CF911F910F91FF90EF90DF90CF90F0
:1034E000BF90AF909F900895CF93DF930E947C1977
:1034F000EC018238910559F1A0F48133910509F46A
:1035000073C040F48932910509F467C08A9709F4C1
:1035100072C084C08533910509F458C0C997B9F0C9
:103520007DC0833E910571F138F4803E9105B1F084
:10353000823E910511F172C0863E9105B9F1873E38
:103540009105C9F1843E910509F068C024C08091BD
:10355000640180FD5DC081FD5BC060C0809164013D
:1035600080FD50C08091650180FF36C1809164016B
:1035700084FD30C1C3EED0E02FC18091640182FF91
:103580002BC1F4CF8091640182FD3FC08091650121
:1035900080FD3EC0EBCF8091650181FF1DC1809110
:1035A000640184FD17C1C7EED0E016C180916401AB
:1035B00083FF12C1F4CF8091640183FD2CC0809100
:1035C000650181FFECCFC4EED0E006C180916401BB
:1035D00085FF02C1C9E2D0E0FFC08091640185FF90
:1035E000FBC0C5E3D0E0F8C08091640186FFF4C061
:1035F000CAE2D0E0F1C08091640186FFEDC0C1E372
:10360000D0E0EAC0C9E3D0E0E7C0C2EED0E0E4C059
:10361000C0EED0E0E1C0C6EED0E0DEC0C11582E56C
:10362000D80708F066C0C11591E5D90728F0DC2F4E
:10363000CC27C16FD06AD0C0C83ED10560F5C03E6E
:10364000D10508F0C9C0C83AD105B0F4C53AD105D2
:1036500040F0C55AD0E0C15DDE4FC881D0E0D064F3
:10366000BBC0C130D10509F4B7C008F4B3C0C43041
:10367000D10508F4AFC0B0C0CF3BD10508F0AAC057
:10368000C85AD0E0CC0FDD1FCE5CDE4F0990D88148
:10369000C02DD464A1C0C11520E5D207E0F0CE0151
:1036A00074E0969587957A95E1F783709C2F9370D7
:1036B00021E030E002C0220F331F9A95E2F73C6808
:1036C000382BCF70C695C69580E2C89FE0011124C3
:1036D000C22BD32B81C0C11580E4D80718F0DF704E
:1036E000D06A7AC0CE019A9581159F4108F474C0C2
:1036F00071C0C11586E5D807F0F5C11595E5D90764
:1037000050F08C2F0E947A178F71C82FD0E0DC2FD9
:10371000CC27D06261C0C11524E5D20728F0DC2F88
:10372000CC27C46FD06A58C09E01237033278C2FDA
:1037300086958695C115D34578F4C1E0D0E002C0E6
:10374000CC0FDD1F2A95E2F720E2829FC0011124F1
:10375000C82BD92BDC6840C0C1E0D0E002C0CC0F40
:10376000DD1F2A95E2F720E2829FC0011124C82BB9
:10377000D92BDA6831C0C1152AE5D207E8F4C115A2
:1037800089E5D80780F08C2F8F700E947A1794E01B
:10379000D695C7959A95E1F7CF70D0E0DC2FCC276E
:1037A000D069C82B19C0C11598E5D90798F0DC2F4E
:1037B000CC27C06FD06A10C0CE01905681159042C0
:1037C00048F48D2F8F710E947A17DD27D0628F7198
:1037D000D82B02C0C0E0D0E0CE01DF91CF91089598
:1037E000882341F0809590911202892380931202E0
:1037F0000C94C90E0895882339F090911202892BF8
:10380000809312020C94C90E08958823A9F19CEFAD
:10381000980F913A60F4E3E9F1E09281891301C0D5
:103820001282319641E0E939F407B9F714C090E209
:10383000980F983090F4877021E030E0A90102C021
:10384000440F551F8A95E2F7CA01809590911202A4
:103850008923809312020C94C90E9BE5980F933034
:1038600020F480E090E00C947118885A873120F49D
:1038700080E090E00C945B180895CF93882309F4BE
:1038800053C09CEF980F913AF8F4C82FE5E9F1E0A6
:103890008BE991E02191C21721F08E179F07D1F794
:1038A0000DC0E3E9F1E08281C81301C012823196B4
:1038B00041E0E939F407B9F70E94C90E6C2F83E99A
:1038C00091E00E942D0E13C090E2980F983090F472
:1038D000877021E030E0A90102C0440F551F8A958E
:1038E000E2F7CA0190911202892B80931202CF91C4
:1038F0000C94C90EEBE5E80FE33040F4F0E0E15D35
:10390000FE4F808190E0CF910C947118885A8731D6
:1039100058F4E82FF0E0EE0FFF1FEE5CFE4F8081C1
:103920009181CF910C945B18CF9108951F93CF9301
:10393000DF93182F893319F0C0E0D0E002C0C0E552
:10394000D0E0812F0E943D1C209741F08FE99FE03D
:103950000197F1F700C000002197F6CF812FDF918A
:10396000CF911F910C94051CF999FECF92BD81BD9A
:10397000F89A992780B50895A8E1B0E042E050E0B8
:103980000C94E81C262FF999FECF92BD81BDF89AC0
:10399000019700B4021639F01FBA20BD0FB6F89493
:1039A000FA9AF99A0FBE08950396272F0E94C31C16
:1039B0000E94C21C252F0E94C31C242F0C94C31CE0
:1039C0000196272F0E94C31C0C94C21CDC01CB0162
:1039D000FC01F999FECF06C0F2BDE1BDF89A31961F
:1039E00000B40D9241505040B8F70895EE0FFF1FFC
:1039F0000590F491E02D0994692796276927782787
:0A3A0000872778270895F894FFCF78
:103A0A004B0D500D4A0D5D09590901C6F5F6F767C8
:103A1A00F434353666F1F0379091929395949697EF
:103A2A004022321E02FC01CA0170028902A90281E7
:103A3A008283E200E900EA00B500B600B700CD00D3
:103A4A008301CC008A0192019401210223022402FB
:103A5A002502260227022A02B300B4006F00700072
:00000001FF
